:100000000C9440000C9434290C9434290C94342919
:100010000C9434290C9434290C9434290C943429EC
:100020000C9434290C9434290C9434290C943429DC
:100030000C9434290C9434290C94A5260C9434295E
:100040000C9434290C9434290C9434290C943429BC
:100050000C9434290C9434290C9434290C943429AC
:100060000C9434290C943429010003548003540364
:100070006400527E0364036D80036D036E00528E34
:1000800011241FBECFEFD8E0DEBFCDBFE8E6F0E021
:1000900040E017C0B591A59135912591059107FDD7
:1000A0000CC095918591EF01F92FE82F05900D92E5
:1000B000A217B307D9F7FE0104C01D92A217B30718
:1000C000E1F7E038F40731F70E94BF110C94D8280B
:0400D000F894FFCFD2
:1000D4007569642E747874000D0A004F70656E3A69
:1000E4002564005772697465313A25642F256400CC
:1000F4005772697465323A25640053796E633A2500
:100104006400436C6F73653A256400533A256C753B
:1001140000496E697420534420436172642E2E2E6C
:1001240000005344204572723A20256400526561F0
:10013400647920746F207363616E00253032582512
:100144003032582530325825303258253032580054
:100154005549443A0023205361766520202A2043E0
:10016400616E63656C00536176696E672E2E2E0096
:100174004475706C6963617465210043616E6365E5
:050184006C6C656400D5
:10018900809A45418E418F804545454949498E8F21
:100199009092924F994F555559999A9B9C9D9E9F24
:1001A90041494F55A5A5A6A7A8A9AAABACADAEAF25
:1001B900B0B1B2B3B4B5B6B7B8B9BABBBCBDBEBFBE
:1001C900C0C1C2C3C4C5C6C7C8C9CACBCCCDCECFAE
:1001D900D0D1D2D3D4D5D6D7D8D9DADBDCDDDEDF9E
:1001E900E0E1E2E3E4E5E6E7E8E9EAEBECEDEEEF8E
:1001F900F0F1F2F3F4F5F6F7F8F9FAFBFCFDFEFF7E
:100209004641543332202020002A2B2C3A3B3C3DD6
:080219003E5B5D7C223F7F008B
:1002210068076C094C836A9074A07AC00080688862
:0602310000846C820081D4
:07023700286E756C6C2900B4
:06023E00286E696C290026
:100244002F923F924F925F926F927F928F929F92E2
:10025400AF92BF92CF92DF92EF92FF920F931F93D0
:10026400CF93DF93CDB7DEB76E970FB6F894DEBFAA
:100274000FBECDBF7B01D42EDB011D921C920E94C8
:10028400592199230CF4ACC2880F991FFC01E6593B
:10029400FC4F008111810115110509F4A3C2F70176
:1002A40011830083FD2DFE7FDF2ED8018C918823DE
:1002B40069F011968C910E94152980FD07C0DD20FC
:1002C40009F492C282FF92C28AE042C3F80110820A
:1002D40081810E94D51280FD8BC2DD2009F4AEC25B
:1002E40082FD88C240E050E0BA01C8010E94760F46
:1002F40082309105D1F54801FAE08F1AFEEF9F0A8A
:100304009E012F5F3F4F79016E0131E1C30ED11C75
:100314005701B40180E80E943023D5016D937D9389
:100324008D939D935D01B0E18B0E911CAC14BD04C3
:1003340081F70F2EF3E0AF2EF02DB12CF701419190
:100344005191619171917F014115510561057105CB
:1003540039F0C8010E94760F8230910518F479C2F1
:100364008A2D9B2DCE14DF0449F78430910509F4BE
:1003740043C2029708F042C29801255C3F4F40E80F
:10038400A42FC9010196A11DFC018491A7FD8081C0
:1003940090E0982F8827F901249147FD2081822B32
:1003A4008115924009F02CC2C8018A5B9F4FA0E8D6
:1003B4009C014A2F2F5F3F4F4F4FF901849047FD17
:1003C4008080912C982C8824FC018491A7FD808145
:1003D400882A940140E050E0298B3A8B4B8B5C8B4C
:1003E400232B242B252B51F4B8016C5A7F4F80E822
:1003F4000E943023698B7A8B8B8B9C8BD8015C9603
:100404008D909D90AD90BC905F9729893A894B89D6
:100414005C8958962D933D934D935C935B97F801BB
:10042400E05CFF4F7080F80173828FEF870D82309C
:1004340008F0E8C135AC832D90E09387828700975C
:1004440009F4E2C19C012150310982239323892BB1
:1004540009F0DCC198012F5B3F4F40E8A42FC9018C
:100464000196A11DFC018491A7FD808190E0982F45
:100474008827F901249147FD2081AC01422B5E8B32
:100484004D8BD80119965C934E931897CA018F70BF
:100494009927892B09F0BCC1C8018D5B9F4FA0E847
:1004A4009C014A2F2F5F3F4F4F4FF901C49047FDE6
:1004B400C080D12CDC2CCC24FC018491A7FD80814C
:1004C400C82AE12CF12CC114D104E104F10441F453
:1004D400B801605B7F4F80E80E9430236B017C0190
:1004E4009801225C3F4F40E8A42FC9010196A11D49
:1004F400FC018491A7FD808190E0982F8827F90161
:10050400249147FD2081FC01E22B309709F482C13C
:10051400A72DB0E029893A894B895C890E94CD28AE
:100524006B8F7C8F8D8F9E8F9F0140E050E02F8BCF
:10053400388F498F5A8F8D899E89929582958F70B5
:1005440089279F708927280F391F411D511D4B8C06
:100554005C8C6D8C7E8C420E531E641E751EC414FE
:10056400D504E604F70408F457C1C701B6016419B9
:10057400750986099709232D30E040E050E00E9478
:10058400EA26DA01C901211531054105510509F4AD
:1005940045C1263F6FEF360746076FE0560730F434
:1005A4000F2EF3E02F2E312CF02D02C0212C312CF4
:1005B400863FEFEF9E07A105B10520F4689422243D
:1005C40021F8312C863F9F40A105B10508F493C161
:1005D4002114310409F424C169017A0162E0C60ED0
:1005E400D11CE11CF11CD8015496CD92DD92ED9200
:1005F400FC925797F80180A291A2A2A2B3A28F897C
:10060400988DA98DBA8D880D991DAA1DBB1D84A333
:1006140095A3A6A3B7A3B501A401440D551D661D5A
:10062400771D44A755A766A777A7F3E02F163104D3
:1006340009F04BC09801265A3F4F40E8A42FC90146
:100644000196A11DFC018491A7FD808190E0982F63
:100654008827F901249147FD2081822B892B09F0F9
:10066400E1C02D893E89232B09F0DEC0B801645A0C
:100674007F4F80E80E943023D80198966D937D9334
:100684008D939C939B97CC0CDD1CEE1CFF1CCC0C17
:10069400DD1CEE1CFF1CBFEFCB0EB1E0DB1EE11C2A
:1006A400F11C0B2EB9E0F694E794D794C794BA954D
:1006B400D1F7B02D29893A894B895C892C153D05E0
:1006C4004E055F0508F4B2C0F0C04D895E89452B24
:1006D40009F4AEC04B8C5C8C6D8C7E8C480E591E1C
:1006E4006A1E7B1ED80198964D925D926D927C9203
:1006F4009B97B2E02B16310429F4CC0CDD1CEE1CC4
:10070400FF1CBAC0A3E0B0E0A70196010E94CD2867
:10071400DC01CB01B695A79597958795E1E0CE22AC
:10072400DD24EE24FF24C80ED91EEA1EFB1EA4C03D
:10073400B501A4014F5F5F4F6F4F7F4FC8010E9407
:10074400962481113CC0D80115961C92B801605DB5
:100754007F4F80E80E943023623572458146914480
:1007640071F5B8016C5E7D4F80E80E9430236237DA
:1007740072478144914619F5B801645D7D4F80E864
:100784000E9430236115710585459A4AC1F4B80168
:10079400685E7D4F80E80E943023D80150966D93A7
:1007A4007D938D939C935397B801645E7D4F80E84D
:1007B4000E943023F8016487758786879787D8015C
:1007C4002C92809168039091690301969093690338
:1007D4008093680317969C938E93169780E0B8C015
:1007E4008BE0B6C08CE0B4C080E0B2C080E0B0C0A2
:1007F40083E0AEC08AE0ACC081E0AAC08DE0A8C0AE
:100804008DE0A6C08DE0A4C08DE0A2C08DE0A0C0A4
:100814008DE09EC08DE09CC08DE09AC08DE098C0B4
:100824008DE096C08DE094C08DE092C08DE090C0C4
:100834008DE08EC081E08CC08DE08AC040E050E045
:10084400BA01C8010E94760F8230910509F08DCD5E
:1008540052CD049709F090CDEDCF8FEF9FEFDC01DF
:10086400F801808B918BA28BB38B84879587A687A5
:10087400B78780E88583A3CFFFEFCF0EF1E0DF1EBB
:10088400E11CF11C0B2EB9E0F694E794D794C794BD
:10089400BA95D1F7B02D29893A894B895C892C15F1
:1008A4003D054E055F0540F2D8CF8FEF9FEFDC0189
:1008B400F801808B918BA28BB38B84879587A68755
:1008C400B78780E885839801205A3F4F40E8A42FDA
:1008D400C9010196A11DFC018491A7FD808190E0CE
:1008E400982F8827F901249147FD2081822B0197B5
:1008F40009F065CF1DCF69017A01F2E0CF0ED11C5A
:10090400E11CF11CD8015496CD92DD92ED92FC923B
:100914005797F80180A291A2A2A2B3A28F89988DC1
:10092400A98DBA8D880D991DAA1DBB1D84A395A3FD
:10093400A6A3B7A3B501A401440D551D661D771DDB
:1009440044A755A766A777A722242394312CBDCEAC
:100954006E960FB6F894DEBF0FBECDBFDF91CF9178
:100964001F910F91FF90EF90DF90CF90BF90AF90C9
:100974009F908F907F906F905F904F903F902F90BB
:020984000895D4
:100986002F923F924F926F927F928F929F92AF9249
:10099600BF92CF92DF92EF92FF920F931F93CF9366
:1009A600DF93CDB7DEB72E970FB6F894DEBF0FBE36
:1009B600CDBF4C016B0138011A8219828FEF9FEF70
:1009C6009C838B831E821D8258874F833A87298793
:1009D600A12CB12CD6012D913D914C912A0D3B1D98
:1009E600411DB7FC4A95F901849147FD808181112B
:1009F60016C0F601208331834283F901849147FDB5
:100A06008081853209F00FC21901442EFFEF2F1A9B
:100A16003F0A4F0AD6012D923D924C921BC0853259
:100A260041F3B401082E000C990B0E9499224FEF56
:100A3600A41AB40ACFCF2C32DCF02D3229F5298145
:100A46003A8121603A8329830196A11DF6018083AC
:100A56009183A283F60180819181A281FC01249178
:100A6600A7FD20812B3239F729813A812460EACF0C
:100A7600203221F429813A812860E4CF233251F4CF
:100A860029813A812061DECF203321F429813A8100
:100A96002260D8CFB701C6010E9411259E838D839F
:100AA60097FF0BC029813A81F1E02F273A832983EA
:100AB6009195819591099E838D8389819A8180FF85
:100AC60003C08D7F9A838983F60180819181A281FB
:100AD600FC012491A7FD20812E3261F40196A11D0F
:100AE600F60180839183A283B701C6010E94112576
:100AF6009C838B83C6010E94FE21182FD6012C9160
:100B060011968C91119712969C91E22FF82F849151
:100B160097FD8081082E000C990B0E940D298936BD
:100B260009F44AC084F4833609F419C134F48532D1
:100B360009F445C18136E1F050C18436E9F18836C1
:100B46000CF4E9C04AC1803709F4B0C03CF48E36D3
:100B560009F4D6C08F3609F46DC03FC1853709F454
:100B66004AC0883709F485C0833709F036C10DC1FC
:100B7600612F70E0A701CE010B960E940000892B21
:100B860009F448C1F60180819181A2819C014A2F16
:100B96002F5F3F4F4F4F208331834283FC012491C7
:100BA600A7FD2081AE01455F5F4FBE016F5F7F4F9E
:100BB600C4010E9400002BC1612F70E0970141E043
:100BC60050E0CE010B960E94091D892B09F422C123
:100BD600F60180819181A2810196A11D8083918376
:100BE600A283AE01455F5F4FBE016F5F7F4FC401B9
:100BF6000E94B81B0CC1612F70E0970140E050E0E5
:100C0600CE010B960E94091D892B09F403C1F6013A
:100C160080819181A2810196A11D80839183A28307
:100C2600AE01455F5F4FBE016F5F7F4FC4010E94FB
:100C36000D24EDC0612F70E0970140E050E0CE0139
:100C46000B960E94091D892B09F4E4C0F6018081E8
:100C56009181A2810196A11D80839183A283AE0119
:100C6600455F5F4FBE016F5F7F4FC4010E94AD1F9E
:100C7600CEC0612F70E0970140E050E0CE010B96A8
:100C86000E94091D892B09F4C5C0F6018081918156
:100C9600A2819C014A2F2F5F3F4F4F4F2083318304
:100CA6004283FC012491A7FD208120C0970140E0EA
:100CB60050E060EF70E0CE010B960E94091D892B73
:100CC60009F4A8C0F60180819181A2810196A11D37
:100CD60080839183A2838B859C85892B31F400E0E8
:100CE60010E02EE332E040E08CC028E7AE01455F1D
:100CF6005F4FBE016F5F7F4FC4010E94C21587C060
:100D0600A501460D571D612F70E09701CE010B9688
:100D16000E9400007FC0612F70E0A701CE010B96F4
:100D26000E940000892B09F475C0F601808191812B
:100D3600A2819C014A2F2F5F3F4F4F4F2083318363
:100D46004283FC012491A7FD2081AE01455F5F4FE0
:100D5600BE016F5F7F4FC4010E94000058C010386B
:100D660009F058C0F60180819181A2810196A11DEA
:100D760080839183A283D701ED91FC911197CF01D6
:100D860002968D939C93808126C0103809F042C04C
:100D9600F60180819181A2810196A11D80839183B4
:100DA600A283D701ED91FC911197CF0103968D9304
:100DB6009C9320813181428100E010E022C01038EE
:100DC60049F5F6012081318142812F5F3F4F4F4F18
:100DD6002083318342838B870EC085E28B87F601A1
:100DE6002082318242821A8219821E821D828FEFF0
:100DF6009FEF9C838B839E01255F3F4F40E801E078
:100E060010E0BE016F5F7F4FC4010E94D4248A0D9B
:100E16009B1D0AC0F60180819181A2810196A11DC8
:100E260080839183A283C5012E960FB6F894DEBF08
:100E36000FBECDBFDF91CF911F910F91FF90EF9025
:100E4600DF90CF90BF90AF909F908F907F906F90E4
:080E56004F903F902F9008958A
:100E5E002F923F924F925F926F927F928F929F92BC
:100E6E00AF92BF92CF92DF92EF92FF920F931F93AA
:100E7E00CF93DF93CDB7DEB72A970FB6F894DEBFC8
:100E8E000FBECDBF6C012A01662E59014801D80153
:100E9E001D921C928D83DE82BE016F5F7F4F0E947A
:100EAE00DD258111C2C1F60187858111BEC18685FE
:100EBE0081FFBAC180899189A289B389AC01BD0134
:100ECE004A0D5B1D611D711D481759076A077B0787
:100EDE0018F45C01A094B094A114B10409F49EC15D
:100EEE0077247394F60180899189A289B389AC0124
:100EFE00BD01517066277727452B462B472B09F0EE
:100F0E002AC1E981FA810285138501501109AC01CC
:100F1E00BD01032E39E076956795579547953A951D
:100F2E00D1F7302D042315230115110509F051C0F9
:100F3E00892B8A2B8B2BA1F4D60116966D917D9160
:100F4E008D919C9119976115710581059105B9F4E3
:100F5E0040E050E0BA018D819E810E94A10C09C033
:100F6E00F60144895589668977898D819E810E9413
:100F7E00A10C611571058105910509F44FC1613010
:100F8E0071058105910529F482E0D6011F968C9397
:100F9E004CC16F3FBFEF7B078B079B0721F481E0AE
:100FAE00F601878742C1D60154966D937D938D933A
:100FBE009C93579716962D913D914D915C91199753
:100FCE00232B242B252B29F4F60166837783808728
:100FDE00918729813A81D9015C964D915D916D91F0
:100FEE007C915F97F601808D918DA28DB38D481700
:100FFE0059076A077B0751F4C9010E94DB1D88233C
:10100E0029F081E0D6011F968C930FC1E981FA81F8
:10101E00FC83EB83D60154964D915D916D917C913D
:10102E005797CF010E9434266115710581059105F0
:10103E0021F482E0F6018787F8C09B01AC01200FF6
:10104E00311F411D511D2F83388749875A8715013E
:10105E00232C332426942114310409F450C0AB817F
:10106E00BC811A968D919C911B979801220D331D70
:10107E008217930718F41C01201A310A71010F818F
:10108E00188529853A85662DA201EB81FC81818127
:10109E000E94BB1A882329F081E0D6011F968C93FB
:1010AE00C4C009811A81F801848D958DA68DB78DE6
:1010BE002F81388549855A85821B930BA40BB50B5E
:1010CE00A10160E070E084179507A607B70798F4B2
:1010DE00982F8827990F662DA201480F591F611D61
:1010EE0097FD6A9520E032E0C801C0960E94EF2776
:1010FE00D80114961C92322C2224330C5EC0F601B9
:10110E00408951896289738982859385A485B585C5
:10111E00481759076A077B07A8F08B819C810E94AC
:10112E00DB1D882329F081E0D6011F968C937DC0AC
:10113E00E981FA812F81388549855A85248F358F2B
:10114E00468F578F8F819885A985BA85F601808F36
:10115E00918FA28FB38FD60150968D919C915197FE
:10116E00917020E032E01901281A390AA214B30452
:10117E0008F41501F601408D518D628D738D8981B4
:10118E009A810E949624882329F081E0D6011F9629
:10119E008C934BC0E981FA81F096D60150968D91D1
:1011AE009C91519791709101662DA2018E0F9F1FF8
:1011BE000E94EF27E981FA817482A218B308F40124
:1011CE0080819181820D931D91838083420C531CEB
:1011DE00611C37FC6A94F60180899189A289B389D2
:1011EE00820D931DA11DB11D808B918BA28BB38B94
:1011FE004285538564857585481759076A077B07AD
:10120E0010F4AC01BD01D6011A964D935D936D930A
:10121E007C931D97A114B10409F064CEF601868566
:10122E008064868780E001C087E02A960FB6F89426
:10123E00DEBF0FBECDBFDF91CF911F910F91FF90FB
:10124E00EF90DF90CF90BF90AF909F908F907F9058
:0C125E006F905F904F903F902F9008958C
:10126A003F924F925F926F927F928F929F92AF922C
:10127A00BF92CF92DF92EF92FF920F931F93CF9379
:10128A00DF93CDB7DEB7AF970FB6F894DEBF0FBEC8
:10129A00CDBF4BA75CA76DA7009709F432C1122FE7
:1012AA009FA78EA7822F8F73382E482FBE01675DA6
:1012BA007F4FCE018B960E94220181111DC189A503
:1012CA009AA5EEA5FFA5918380839A8389834BA56E
:1012DA005CA56DA5CE0101960E94020B811113C176
:1012EA0088A588230CF018C112C1843009F03DC1C9
:1012FA00CE0101960E943B1EF32DF8603F2E8823F3
:10130A0039F0FAC012FD59C18D81817109F057C1B6
:10131A0033FE5FC0EB8DFC8D1686178691E2908BAB
:10132A008AE5818BEB8DFC8D168A178A908F818FC7
:10133A00AB8CBC8C09A51AA5A50160E8C8010E945E
:10134A00C4232B013C0180E2F50183876B8D7C8DE0
:10135A0020E030E0A901C8010E94A928EB8DFC8D8C
:10136A00148E158E168E178EE9A5FAA581E0848350
:10137A00411451046104710449F1848C958CA68C42
:10138A00B78C00E010E09801B301A201CE010196EA
:10139A000E94261A8111B0C0B501A40189A59AA597
:1013AA000E949624E9A5FAA591E0491A5108610814
:1013BA0071084486558666867786882339F09CC0EC
:1013CA0011FF02C080FDFDC013FF03C0E32DE064DE
:1013DA003E2EE9A5FAA5848D958DA68DB78DEEA52D
:1013EA00FFA5848F958FA68FB78F8B8D9C8D91A328
:1013FA0080A30B8D1C8DA9A4BAA4A80160E8C5011D
:10140A000E94C4232B013C01EEA5FFA566837783C6
:10141A0080879187045E1F4FB80180E80E943023BD
:10142A006B017C01EEA5FFA5628773878487958788
:10143A00F50186819781EEA5FFA59383828336867F
:10144A001786108E118E128E138E108A118A128AA6
:10145A00138A35FE87C0C114D104E104F10409F4EA
:10146A0081C0C08AD18AE28AF38AF5018284938490
:10147A00A12CB12C072E79E0880C991CAA1CBB1C44
:10148A007A95D1F7702D8C149D04AE04BF0408F030
:10149A0056C0B301A2018EA59FA50E94D4142B01A8
:1014AA003C01623071058105910508F07FC06DC06D
:1014BA00B301A20189A59AA50E9434266115710576
:1014CA008105910509F44CC0970186010F2EF9E0B8
:1014DA003695279517950795FA95D1F7F02DDC01E2
:1014EA00CB01800F911FA21FB31FEEA5FFA5808F0E
:1014FA00918FA28FB38F36C0EEA5FFA511821082FD
:10150A0064C089E062C0212F2C7159F0EECE212FE0
:10151A002C7151F586E005C0812F8C7109F0F2CE4D
:10152A0028C08111E9CF65CF8FEF9FEFDC01EEA5CF
:10153A00FFA5848B958BA68BB78B81E0DDCFEEA5BB
:10154A00FFA5448A558A668A778AD701C6019170AF
:10155A00AA27BB27892B8A2B8B2B09F0A9CF02C07C
:10156A0082E0CACF80E031C086E0F32DF8603F2EDA
:10157A00D8CF8D8184FD27C023CFEEA5FFA5448A4D
:10158A00558A668A778A82E0B7CF6F3F7F4F8F4F3F
:10159A009F4F51F2F2CFC818D908EA08FB088C14F9
:1015AA009D04AE04BF0408F474CFC9CF8FEF481668
:1015BA0058066806780679F7B7CF88E09DCF87E0A6
:1015CA009BCF87E099CF84E097CFAF960FB6F89478
:1015DA00DEBF0FBECDBFDF91CF911F910F91FF905C
:1015EA00EF90DF90CF90BF90AF909F908F907F90B9
:0A15FA006F905F904F903F900895AE
:101604002F923F924F925F926F927F928F929F920E
:10161400AF92BF92CF92DF92EF92FF920F931F93FC
:10162400CF93DF93CDB7DEB72F970FB6F894DEBF15
:101634000FBECDBF1A01462EDC010D90BC91A02D2A
:10164400BF83AE839F878E8704C0BFEF2B1A3B0AEC
:101654004B0AF101849147FC80818F32B1F38C35C0
:10166400A1F32E853F85D90116961D921D921D92D8
:101674001C921997F101849147FC8081803258F4BF
:1016840080E897968C9340E050E0BA01C9010E942B
:10169400AF16D82E3AC1EE85FF857C96FD83EC8388
:1016A400512C912CF8E0FA871B862BE02C871D86A1
:1016B400AC81BD81CD01A0E889839A83AB83EE819F
:1016C400FF81F096F987E8874BE050E060E270E034
:1016D4008C819D810E94E328842C3101A52CB92C96
:1016E400E12CF12C6894CC24C3F8D12C04C09FEFD6
:1016F400691A790A890AAFEFEA1AFA0AF30114910E
:1017040087FC1081113208F447C01F3211F01C35D8
:10171400B1F4A42DC1018E0D9F1DA11DF7FCAA9546
:1017240005C0FFEFEF1AFF0A0196A11DFC012491E9
:10173400A7FD20812F32A9F32C3599F32DC01E3239
:1017440009F4DAC0AC14BD0408F0B2C011235CF48F
:101754001F77812F90E0A0E087579E4FAF4FFC0189
:101764001491A7FD1081412F50E062E172E080E006
:101774000E945D28672B682B09F09FC08FE9810FB9
:101784008A3108F41052EC81FD81EA0DFB1D1083AF
:10179400C50101965C01ABCFAB2809F493C0EE857B
:1017A400FF85848D853E11F425E0248F2E0C3F1C8B
:1017B400411CF7FC4A94113240F0F101849147FC3A
:1017C4008081813230F0812C07C06894882482F8AB
:1017D40003C06894882482F8AE85BF8597968C925E
:1017E4009797ED90FC90119740E050E0BA01CD013D
:1017F4000E94AF16D82E811178C0AE85BF8556964B
:101804004D915D916D917C915997C7010E949624E9
:10181400D82E81116CC0AE85BF855A96ED91FC918E
:101824005B9780818823F1F0C3848C2D8F73149689
:101834008C93838583FD0BC0BF0180E80BE010E02F
:1018440029813A814B810E940A26892BA1F0652DBA
:10185400792D8E859F850E94D513D82E882369F211
:10186400B82C46C0B82C8B2D847089F50F2EF5E06A
:10187400DF2EF02D4AC0EE85FF85882D847009F097
:1018840044C0C4FE28C046855785517028853985D3
:10189400420F531F60E88E819F810E94C423AE854E
:1018A400BF8516966D937D938D939C9319970CCF5A
:1018B4000F2EF6E0DF2EF02D28C00F2EF6E0DF2EDF
:1018C400F02D23C00F2EF6E0DF2EF02D1EC06894FD
:1018D400DD24D2F81AC00F2EF5E0DF2EF02D15C04E
:1018E4000F2EF6E0DF2EF02D10C0B82C01C0B82C5E
:1018F400B4E0DB120AC0B7CFEBE0CE16D10481F31B
:10190400AA84BB84CC84DD84F2CE8D2D2F960FB6B1
:10191400F894DEBF0FBECDBFDF91CF911F910F9121
:10192400FF90EF90DF90CF90BF90AF909F908F90FB
:0E1934007F906F905F904F903F902F9008959E
:101942004F925F926F927F928F929F92AF92BF92CD
:10195200CF92DF92EF92FF920F931F93CF93DF9379
:101962008C012A013B01FC01C081D1814115510545
:1019720061057105C9F48C849D84AE84BF84811491
:101982009104A104B10409F42DC18C899D89AE8909
:10199200BF8988169906AA06BB0608F427C1812CBE
:1019A200912C5401839422C10E94D4146230710597
:1019B2008105910508F4D8C06F3FFFEF7F078F07BD
:1019C2009F0709F4D6C0CC88DD88EE88FF886C15A5
:1019D2007D058E059F0508F0F4C012C173016201F6
:1019E2002FEFC21AD20AE20AF20A8C899D89AE89C5
:1019F200BF89C816D906EA06FB0628F0C12CD12CED
:101A020076016894C1F8B701A601C8010E94D414F6
:101A1200613071058105910509F4AFC06F3FEFEFA9
:101A22007E078E079E0709F4ADC0672B682B692BD2
:101A3200B1F08C849D84AE84BF84F2E08F16910451
:101A4200A104B10408F4C8C08C899D89AE89BF89FC
:101A520088169906AA06BB0608F0C1C007C0C114C1
:101A6200D104E104F104D1F553014201750164018D
:101A72002FEFC21AD20AE20AF20A8C899D89AE8934
:101A8200BF89C816D906EA06FB0660F082E088160E
:101A92009104A104B10408F479C0C12CD12C7601BF
:101AA2006894C1F8B701A601C8010E94D414611557
:101AB20071058105910591F06130710581059105EE
:101AC20009F468C06F3F7F4F8F4F9F4F09F467C083
:101AD200C814D904EA04FB0459F665C00FEF1FEFDE
:101AE2009801B701A601CE010E949C10811135C058
:101AF200411451046104710449F097018601B30154
:101B0200A201CE010E949C10811127C0CC86DD86E5
:101B1200EE86FF8688899989AA89BB890097A105E3
:101B2200B10509F444C04C895D896E897F894250B0
:101B3200510961097109481759076A077B07D0F1F2
:101B42000197A109B109888B998BAA8BBB8B8D81D7
:101B520081608D83C701B60153C0813071F161E0AC
:101B620070E080E090E04CC061E070E080E090E0E6
:101B720047C06FEF7FEFCB0143C061E070E080E0D0
:101B820090E03EC06FEF7FEFCB013AC060E070E0C3
:101B9200CB0136C061E070E080E090E031C06FEFD1
:101BA2007FEFCB012DC060E070E0CB0129C0C701FF
:101BB200B60126C0C701B60123C06FEF7FEFCB018C
:101BC2001FC0688979898A899B8961157105810598
:101BD200910509F003CF14C05301420147CF5301CD
:101BE200420144CF812C912C5401839468897989D4
:101BF2008A899B89611571058105910509F036CFA6
:101C0200DF91CF911F910F91FF90EF90DF90CF90D6
:101C1200BF90AF909F908F907F906F905F904F900A
:021C2200089523
:101C24002F923F924F925F926F927F928F929F92E8
:101C3400AF92BF92CF92DF92EF92FF920F931F93D6
:101C4400CF93DF9300D000D000D0CDB7DEB77C01B6
:101C54003B015A014901F901118210828D83FE82F0
:101C6400BE016F5F7F4F0E94DD25811124C1F70102
:101C74008785811120C1868580FF1AC1828593855D
:101C8400A485B5854089518962897389841B950B24
:101C9400A60BB70BA50160E070E084179507A607B3
:101CA400B70708F45C01A114B10409F403C1F701F6
:101CB40080899189A289B389AC01BD0151706627DD
:101CC4007727452B462B472B09F0A9C0E981FA81D8
:101CD4000285138501501109AC01BD01032E39E0C1
:101CE40076956795579547953A95D1F7302D042306
:101CF40015230115110559F5892B8A2B8B2B31F4EA
:101D0400F701668177818085918509C0F70144894F
:101D14005589668977898D819E810E94D4146230A9
:101D240071058105910520F482E0F7018787C3C01E
:101D34006F3FFFEF7F078F079F0721F481E0F701D3
:101D44008787B9C0F701648B758B868B978B8981E4
:101D54009A819C838B83F7014489558966897789A5
:101D64000E943426611571058105910521F482E0F4
:101D7400F7018787A0C01B012C01200E311E411CD6
:101D8400511C6501CD2CDD24C694C114D10409F481
:101D940041C0EB81FC818285938598012C0D3D1D0A
:101DA4008217930718F46C01C01AD10A8601A201A4
:101DB4009101B301EB81FC8181810E94F61E88238D
:101DC40021F081E0F701878776C0E981FA81848177
:101DD4008823E1F0848D958DA68DB78D82199309A2
:101DE400A409B509A60160E070E084179507A60769
:101DF400B70760F4F096AF0160E8982F8827990F31
:101E040020E032E0860D971D0E94EF27DC2CCC24C5
:101E1400DD0C30C0F701208E318E428E538EF701D7
:101E240080899189917020E032E06901C81AD90A49
:101E3400AC14BD0408F46501F701408D518D628D29
:101E4400738D89819A810E949624882321F081E0F0
:101E5400F701878730C049815A81405D5F4FF701A0
:101E6400808991899170480F591F60E89601C301D8
:101E74000E94EF27AC18BD08F401808191818C0D7C
:101E84009D1D918380836C0C7D1CF7018089918951
:101E9400A289B3898C0D9D1DA11DB11D808B918BD1
:101EA400A28BB38BA114B10409F001CF80E003C06D
:101EB40087E001C080E026960FB6F894DEBF0FBE1F
:101EC400CDBFDF91CF911F910F91FF90EF90DF90E5
:101ED400CF90BF90AF909F908F907F906F905F90C6
:081EE4004F903F902F900895EC
:101EEC00EF92FF920F931F93CF93DF93EC011C8221
:101EFC008FEF9FEFDC018C8F9D8FAE8FBF8FCE014C
:101F0C000E9496248111B4C0CE01825D9D4FA0E841
:101F1C009C014A2F2F5F3F4F4F4FF901E49047FD33
:101F2C00E080F12CFE2CEE24FC018491A7FD808135
:101F3C00E82A88A98B3E21F0885E823008F090C098
:101F4C0025E5E2162AEAF20609F09EC0BE016E579C
:101F5C007F4F80E808E010E029E032E040E00E948A
:101F6C000A26892B09F0AFC086C0442309F478C037
:101F7C00842F90E09C012150310982239323892BDB
:101F8C0009F06EC09E01225C3F4F40E8A42FC901AE
:101F9C000196A11DFC018491A7FD808190E0982FF2
:101FAC008827F901249147FD2081822B892B09F484
:101FBC0057C0FE01E05CFF4F808190E001970297D3
:101FCC0008F04EC09E012F5B3F4F40E8A42FC90183
:101FDC000196A11DFC018491A7FD808190E0982FB2
:101FEC008827F901249147FD2081822B892BC1F18F
:101FFC009E012D5B3F4F40E8A42FC9010196A11D06
:10200C00FC018491A7FD808190E0982F8827F9012D
:10201C00249147FD2081822B8038910558F4BE0114
:10202C00605B7F4F80E80E94302361157105814011
:10203C009105B0F09E012A5B3F4F40E8A42FC901E7
:10204C000196A11DFC018491A7FD808190E0982F41
:10205C008827F901249147FD2081822B892B71F46B
:10206C0085E5E8168AEAF80661F083E090E057C04F
:10207C0084E090E054C080E090E051C080E090E0BB
:10208C004EC082E090E04BC09E01255C3F4F40E883
:10209C00A42FC9010196A11DFC018491A7FD80818B
:1020AC0090E0982F8827F901249147FD2081822BFD
:1020BC004DAD9C012150310928233923232B11F1DB
:1020CC0083E090E02CC09E01255C3F4F40E8A42F9C
:1020DC00C9010196A11DFC018491A7FD808190E0AE
:1020EC00982F8827F901249147FD2081822B4DAD33
:1020FC009C012150310928233923232B51F082E0F4
:10210C0090E00DC08115924009F42FCF83E090E050
:10211C0006C08115924009F428CF82E090E0DF914F
:0C212C00CF911F910F91FF90EF9008954C
:102138002F923F924F925F926F927F928F929F92CF
:10214800AF92BF92CF92DF92EF92FF920F931F93BD
:10215800CF93DF93423051056105710508F4D3C070
:10216800FC01C488D588E688F7884C155D056E059E
:102178007F0508F0CAC0280139016A017B01EC011A
:102188008081823009F464C0833009F482C08130D0
:1021980009F0BDC05A01B694A794A40EB51EC50196
:1021A800892F9927869544A155A166A177A1480F43
:1021B800591F611D711DCF010E949624182F81118E
:1021C800C6C01E01F0E32F0E311C45012FEF821A05
:1021D800920A31E0B322F101EA0DFB1DC0FE1EC0D8
:1021E8008081282F2F7030E1439EC0011124822B5B
:1021F800808381E08C834CA15DA16EA17FA1C40185
:10220800892F99278695480F591F611D711DCE0189
:102218000E949624882309F480C07BC0408281E014
:102228008C834CA15DA16EA17FA1C401892F992740
:102238008695480F591F611D711DCE010E94962475
:10224800882309F478C067C0408281E08C837FC00E
:10225800452F562F672F772784A195A1A6A1B7A14F
:10226800480F591F6A1F7B1FCF010E949624182F01
:1022780081116DC0FE01F096CC0CDD1CE894C0F80D
:1022880081E0D822EC0DFD1D4082518281E08C83D3
:102298005EC084A195A1A6A1B7A1689416F8769509
:1022A8006795579547951694D1F7480F591F6A1F98
:1022B8007B1FCF010E949624182F811148C0EFE0A0
:1022C8007E22CE01C096CC0CDD1CCC0CDD1CFCEFB4
:1022D800CF22F1E0DF22C80ED91EB60180E80E94A5
:1022E8003023DC01CB0188279927AA27B07F482A09
:1022F800592A6A2A7B2AF6014082518262827382B5
:1023080081E08C8324C012E022C012E020C012E0D9
:102318001EC0182F1CC0182F1AC0F1E09F22F1010F
:10232800E80DF91D689413F87694679457944794C8
:102338001694D1F789CF21E09222F101E80DF91D19
:102348009081907F852D8F70492E482A7DCF812FCF
:10235800DF91CF911F910F91FF90EF90DF90CF9079
:10236800BF90AF909F908F907F906F905F904F90AD
:062378003F902F90089534
:10237E00CF93DF93CDB7DEB7E3970FB6F894DEBFFA
:10238E000FBECDBF0E948E2878940E9481260E9497
:10239E00F5280E94FD280E9428290E9438290E94B3
:1023AE002B2981E00E94BD2765E171E080E00E944B
:1023BE0087270E94052921E045E251E060E080E098
:1023CE0091E00E940521182F0E9438290E942E2983
:1023DE00112311F180EC0E94BD271F921F9386E2FC
:1023EE0091E0A0E0AF939F938F936E0181E2C80EB0
:1023FE00D11CDF92CF920E944A28B60180E80E943B
:10240E00872768EB7BE080E090E00E942D270FB6D7
:10241E00F894DEBF0FBECDBF0E9455240F2EFFE3F2
:10242E00CF2EF1E0DF2EF0E0EF2EF02D5E0191E1E8
:10243E00A90EB11C3501A0E88A2E2E0181E2480EAC
:10244E00511CC201A0E889AB9AABABAB81E00E94F4
:10245E00BD2761E371E080E00E948727BE016F5FB8
:10246E007F4F86E20E94C826811106C0CE010196DA
:10247E000E945C26882339F064E670E080E090E0EC
:10248E000E942D27EBCF8D811F928F938C811F92EF
:10249E008F938B811F928F938A811F928F93898145
:1024AE001F928F93EF92DF92CF92BF92AF920E94C4
:1024BE004A2881E00E94BD2764E571E080E00E9419
:1024CE00872780EC0E94BD27882DB3010E948727A5
:1024DE0068EE73E080E090E00E942D2781E00E947C
:1024EE00BD27882DB3010E94872780EC0E94BD274F
:1024FE0069E571E080E00E9487270FB6F894DEBF91
:10250E000FBECDBF0E945D20182F62E370E080E009
:10251E0090E00E942D271123A9F3133281F581E05B
:10252E000E94BD276AE671E080E00E9487270E9424
:10253E00052980EC0E94BD27882DB3010E949A1EAA
:10254E00882331F064E771E080E00E9487270AC09B
:10255E00A201882DB3010E949A1769A97AA98BA9A5
:10256E000E9487270E9438290E942E290E945524F6
:10257E0060ED77E080E090E00E942D2767CF81E04C
:10258E000E94BD276FE771E080E00E94872768EE0A
:0C259E0073E080E090E00E942D2758CFF1
:1025AA008F929F92AF92BF92CF92DF92EF92FF9259
:1025BA000F931F93CF93DF9300D000D0CDB7DEB730
:1025CA008111D0C01AE08FEF0E9431291150D9F73A
:1025DA0040E050E0BA0180E00E949C1C813009F082
:1025EA00C9C08090640390906503A0906603B09080
:1025FA0067034AEA51E060E070E088E00E949C1CB0
:10260A00813009F05BC0CE0101966C017E0195E034
:10261A00E90EF11C86018FEF0E943129F80181939E
:10262A008F01EE16FF06B9F78B81813009F0A2C03F
:10263A008C818A3A09F09EC0809164039091650367
:10264A00A0916603B091670388199909AA09BB0981
:10265A00883E9340A105B10548F440E050E060E0AF
:10266A0070E489EA0E949C1C8111E6CF8091640380
:10267A0090916503A0916603B0916703881999093F
:10268A00AA09BB09883E9340A105B10508F072C0AA
:10269A0040E050E0BA018AE30E949C1C81116AC0A2
:1026AA008FEF0E943129F60181936F01EE15FF0524
:1026BA00B9F7898186FD58C084E057C040E050E0F0
:1026CA00BA0189EA0E949C1C823018F001E011E0EC
:1026DA0002C002E019EA8091640390916503A09117
:1026EA006603B091670388199909AA09BB09883E4C
:1026FA009340A105B10540F440E050E0BA01812FB2
:10270A000E949C1C8111E7CF80916403909165031C
:10271A00A0916603B091670388199909AA09BB09B0
:10272A00883E9340A105B10528F540E052E060E0FB
:10273A0070E080E10E949C1C81111CC000936C0314
:10274A000E942229002331F080916D038E7F8093AD
:10275A006D0305C080916D03816080936D03809144
:10276A006D030DC081E00BC08CE080936C030E9466
:10277A002229EACF10926C030E942229EBCF0F90F4
:10278A000F900F900F90DF91CF911F910F91FF90B3
:10279A00EF90DF90CF90BF90AF909F908F90089569
:1027AA004F925F926F927F92AF92BF92CF92DF92D7
:1027BA00EF92FF920F931F93CF93DF938B01FC014C
:1027CA00C684D784E088F188F0E2CF0ED11CE11CE0
:1027DA00F11CC114D10420E2E206F10438F0FC0134
:1027EA00168A178A108E118E84E0CAC0FC014689A7
:1027FA005789608D718D411551056105710509F47F
:10280A00B2C0EC01A080B180D701C6019170AA279D
:10281A00BB27892B8A2B8B2B09F096C04F5F5F4F02
:10282A006F4F7F4F468B578B608F718F42895389C9
:10283A00648975894115510561057105D9F4F50158
:10284A0080859185A0E0B0E0B701A601689414F8EC
:10285A0076956795579547951694D1F7481759076E
:10286A006A077B0708F470C01E8A1F8A188E198EA1
:10287A0084E086C0F501828593850197A0E0B0E0E7
:10288A0026013701032E39E07694679457944794CA
:10289A003A95D1F7302D84219521A621B721892B8C
:1028AA008A2B8B2B09F050C0CE010E94D4142B0125
:1028BA003C01623071058105910508F456C06F3FED
:1028CA007F4F8F4F9F4F09F452C0F5018489958934
:1028DA00A689B789481659066A067B0640F1012B74
:1028EA0031F41E8A1F8A188E198E84E049C04A89DB
:1028FA005B896C897D89CE010E94A10C2B013C0168
:10290A006115710581059105A1F161307105810596
:10291A00910589F16F3F2FEF72078207920769F1DC
:10292A00AB01BC01C5010E942B1C811128C04A8A37
:10293A005B8A6C8A7D8AB301A201C5010E94342692
:10294A006E8B7F8B888F998FCE86DF86E88AF98A8D
:10295A0080E3A80EB11CE1E0DE22CA0CDB1CDB8E90
:10296A00CA8E80E00DC084E00BC082E009C081E01D
:10297A0007C087E005C082E003C081E001C081E0B2
:10298A00DF91CF911F910F91FF90EF90DF90CF9041
:0E299A00BF90AF907F906F905F904F90089528
:1029A800AF92BF92CF92DF92EF92FF920F931F9355
:1029B800CF93DF93423051056105710508F4B5C026
:1029C800FC01C081D1818C899D89AE89BF89481756
:1029D80059076A077B0708F0ADC06A017B01888147
:1029E800823009F44DC0833009F47AC0813009F08F
:1029F800A6C08A0116950795040F151FC801892FCF
:102A0800992786954CA15DA16EA17FA1480F591FFA
:102A1800611D711DCE010E949624811195C0580137
:102A2800FFEFAF1ABF0A1170FE01E00FF11F10A9E6
:102A3800C501892F992786954CA15DA16EA17FA11B
:102A4800480F591F611D711DCE010E9496248111E6
:102A58007FC081E0B822CA0DDB1D88A9612F70E014
:102A6800782BC0FE09C0729562956F7067277F70DA
:102A7800672780E090E077C07F7080E090E073C0C7
:102A8800452F562F672F77278CA19DA1AEA1BFA1F7
:102A9800480F591F6A1F7B1FCE010E94962481117F
:102AA8005BC0CE01C096A601440F551F4E7F5170E2
:102AB800480F591FCA01A0E89C014A2F2F5F3F4FBA
:102AC8004F4FF901649147FD608170E0762F6627CA
:102AD800FC018491A7FD8081682B80E090E043C0D1
:102AE8008CA19DA1AEA1BFA1689416F876956795B3
:102AF800579547951694D1F7480F591F6A1F7B1FA2
:102B0800CE010E94962481112BC0E096A601440FA5
:102B1800551F440F551F4C7F5170C40FD51FBE0160
:102B280080E80E9430239F701EC061E070E080E062
:102B380090E019C061E070E080E090E014C061E0CE
:102B480070E080E090E00FC06FEF7FEFCB010BC02B
:102B58006FEF7FEFCB0107C06FEF7FEFCB0103C0B3
:102B68006FEF7FEFCB01DF91CF911F910F91FF9016
:0C2B7800EF90DF90CF90BF90AF900895D9
:102B8400AFE0B0E0E8ECF5E10C946B271C016B01BD
:102B94005A8349832B83FB018281938184809580AE
:102BA400E080F180A680B78097FD03C0E894E1F847
:102BB40002C081E090E0E981FA8140805180628026
:102BC40073809701207133273D832C838401E4FEB5
:102BD40007C0411451046104710411F00250110939
:102BE400F701E870FF27FF83EE83E3FE02C0015084
:102BF4001109F6010084F185E02D3197FF87EE87F6
:102C0400EA0DFB1D10829C01201B310B398728879C
:102C1400C701827099279B878A87EB818E2FEE0FDD
:102C2400990B9C01215431093D872C872E853F85C2
:102C34002230310530F48C819D81892B09F041C00B
:102C44005BC0411451046104710459F18E859F8560
:102C540001979F878E87C2018F7099278A309105CB
:102C640014F4C09602C0895A9F4FEC85FD857A976B
:102C740048F49C012062215631092A31310510F4AF
:102C84000E94EC28EE85FF85EA0DFB1D8083015030
:102C9400110984E076946794579447948A95D1F700
:102CA400C5CF88859985800F911F1816190674F26F
:102CB400101611060CF0BFCFEA85FB85EF2B31F619
:102CC400BACFE981FA8180819181A281B381892B74
:102CD4008A2B8B2B89F0EE85FF85EA0DFB1D31973E
:102CE4002B8120838E859F8502979F878E87FC0189
:102CF400EA0DFB1D80E38083EE81FF81EF2B59F009
:102D04002E853F85215031093F872E87F901EA0D31
:102D1400FB1D80E28083F601208531852150310935
:102D24008E859F85281B390B8A0D9B1DAC0160E89D
:102D34008401C1010E94E5229C01F10180819181FD
:102D440090FF06C0F60182819381821793070CF4E9
:0A2D5400C9012F96E2E10C94A227BA
:102D5E004F925F926F927F928F929F92AF92BF929D
:102D6E00CF92DF92EF92FF920F931F93CF93DF9349
:102D7E00EC016A017B014115510580E2680771057E
:102D8E0008F0B3C0DB01CA018F719927AA27BB27B0
:102D9E00892B8A2B8B2B09F0AAC0088119814E87AB
:102DAE005F87688B798B8E809F80A884B98481140D
:102DBE009104A104B10461F5F8018081833040F0E3
:102DCE0080A591A5A2A5B3A50097A105B105F1F423
:102DDE00F80180859185A0E0B0E0B701A601689466
:102DEE0014F876956795579547951694D1F7481729
:102DFE0059076A077B0708F07CC080A591A5A2A59C
:102E0E00B3A58E8B9F8BA88FB98F46C04C015D01E9
:102E1E00F80142845384612C712C032E39E0440C4A
:102E2E00551C661C771C3A95D1F7302DC414D50469
:102E3E00E604F70440F1B501A401CE010E94D414BA
:102E4E004B015C016F3F7F4F8F4F9F4F09F453C073
:102E5E0082E088169104A104B10408F44EC0F80172
:102E6E0084899589A689B78988169906AA06BB060C
:102E7E0008F045C0C418D508E608F708C414D504F0
:102E8E00E604F704C0F6B501A401C8010E94342679
:102E9E006E8B7F8B888F998F8A8A9B8AAC8ABD8A2C
:102EAE008E899F89A88DB98D0097A105B10549F12D
:102EBE00B701A601032E39E076956795579547958C
:102ECE003A95D1F7302D840F951FA61FB71F8E8B05
:102EDE009F8BA88FB98F005D1F4FF1E0DF22C00ED0
:102EEE00D11EDB8ECA8E80E00DC082E00BC082E068
:102EFE0009C082E007C081E005C082E003C082E025
:102F0E0001C082E0DF91CF911F910F91FF90EF9062
:102F1E00DF90CF90BF90AF909F908F907F906F90EB
:062F2E005F904F90089532
:102F34006F927F928F92CF92DF92EF92FF920F93D4
:102F44001F93CF93DF9300D0CDB7DEB73B01882E1C
:102F5400D42EC52E22E344ED50E060E080E393E0FC
:102F64000E943509882399F01F928F938FED90E08A
:102F7400A0E0AF939F938F93CF92DF920E944A2851
:102F84000FB6F894DEBF0FBECDBF81E0ABC0882D75
:102F9400B3010E9420287C01FF248E010F5F1F4F84
:102FA4009701682DA30180E393E00E942F0781110C
:102FB40005C029813A81E216F306D9F09A819F93DC
:102FC40099819F931F928F9387EE90E0A0E0AF9337
:102FD4009F938F93CF92DF920E944A2880E393E0DD
:102FE4000E944D270FB6F894DEBF0FBECDBF82E01E
:102FF40079C08E010F5F1F4F22E030E04CED50E0AE
:1030040060E080E393E00E942F07811105C02981CD
:103014003A8122303105B9F01F928F9384EF90E00A
:10302400A0E0AF939F938F93CF92DF920E944A28A0
:1030340080E393E00E944D270FB6F894DEBF0FBEE5
:10304400CDBF82E04FC080E393E00E940720882335
:10305400B9F01F928F938EEF90E0A0E0AF939F930F
:103064008F93CF92DF920E944A2880E393E00E94DC
:103074004D270FB6F894DEBF0FBECDBF85E032C03A
:10308400E0E3F3E0F284E38484847584CF010E9456
:103094004D27882399F01F928F9386E091E0A0E05A
:1030A400AF939F938F93CF92DF920E944A280FB6DB
:1030B400F894DEBF0FBECDBF83E014C07F928F9221
:1030C400EF92FF928FE091E0A0E0AF939F938F93F4
:1030D400CF92DF920E944A280FB6F894DEBF0FBE4B
:1030E400CDBF80E00F900F90DF91CF911F910F9192
:1030F400FF90EF90DF90CF908F907F906F90089526
:103104007F928F929F92AF92BF92CF92DF92EF9273
:10311400FF920F931F93CF93DF93982EC62FD72F31
:10312400A42E790168018CE0981287C069C00F2E23
:10313400F0E37F2EF02D0F2EF7E78F2EF02D02C037
:10314400712C812C0C2F1D2FC0E0D0E0F80161916F
:103154008F0189E00E949C282196CA15DB05B0F3F3
:10316400692D81E00E949C28FCE09F1208C08DE03C
:103174000E94C228682F60688DE00E949C2884E029
:103184000E94C228182FCFECD7E0072D016007C09A
:1031940084E00E94C228182F219709F464C0802F6C
:1031A4008123B1F36AC0882D81701823C1E009F42A
:1031B400C0E08CE0981270C08AE00E94C22890E0BF
:1031C400F60191838083009709F466C08701E80EB5
:1031D400F91E89E00E94C228F80181938F01EE163E
:1031E400FF06B9F759C06CE081E00E949C280F2EBD
:1031F400F0E37F2EF02D0F2EF7E78F2EF02DB7CFB3
:1032040067EF82E00E949C286FE784E00E949C287C
:1032140060E88AE00E949C2860E081E00E949C288B
:10322400B12CA114B10409F082CFDDCF692D81E066
:103234000E949C28712C812CA2CF60E882E00E941D
:103244009C286FE784E00E949C2860E88AE00E9442
:103254009C2860E081E00E949C28B12CA114B10458
:1032640009F06ECFE3CF8DE00E94C228682F6F77FC
:103274008DE00E949C28C1E00FC08DE00E94C2280E
:10328400682F6F778DE00E949C2886E00E94C228F8
:103294008B7109F488CFC1E08C2FDF91CF911F91FE
:1032A4000F91FF90EF90DF90CF90BF90AF909F90E1
:0632B4008F907F90089549
:1032BA00EF92FF920F931F93CF93DF93CDB7DEB7B1
:1032CA0060970FB6F894DEBF0FBECDBF8111A9C0BB
:1032DA0080916D0380FDA7C08A016130C1F020F0A2
:1032EA00633009F48AC094C00E9436290E9481255D
:1032FA007C01892B19F40E94222903C0EE24E3944D
:10330A00F12C11E0EF2809F488C010E086C040E0F3
:10331A0050E0BA0189E00E949C1C81117BC060E1E7
:10332A0070E0CE0101960E94B120892B09F474C085
:10333A0089818295869586958370813031F52985B4
:10334A0030E0322F22278A85280F311D88858F7316
:10335A0090E0A0E0B0E0DC01992788270196A11D42
:10336A00B11D820F931FA11DB11D072E7AE0880F90
:10337A00991FAA1FBB1F7A95D1F7702DF801808378
:10338A009183A283B38310E048C08985829586958C
:10339A0086958370288590E0F4E02F9F800D911D1B
:1033AA0011249C012F5F3F4F9F819370892F90E0DA
:1033BA00982F8827990F990F820F931FA0E0B0E0EA
:1033CA003E81432F4F703B85232F221F2227221F26
:1033DA00342F320F2A852370220F230F275004C05F
:1033EA00880F991FAA1FBB1F2A95D2F7F80180835D
:1033FA009183A283B38310E010C080E890E0A0E03C
:10340A00B0E0FA0180839183A283B38310E005C000
:10341A0014E003C011E001C011E00E942229812FAB
:10342A0003C084E001C083E060960FB6F894DEBF63
:10343A000FBECDBFDF91CF911F910F91FF90EF90FB
:02344A000895E3
:10344C004F925F926F927F92AF92BF92CF92DF9228
:10345C00EF92FF920F931F93CF93DF935C016A015E
:10346C007B01B901A80122E0C216D104E104F104E8
:10347C0008F463C0FC01C081D1818C899D89AE891F
:10348C00BF89C816D906EA06FB0608F058C04115D4
:10349C0051056105710541F00FEF1FEF9801CE0149
:1034AC000E949C10811152C0B701A601C5010E9457
:1034BC00D4142B013C01611571058105910509F4AA
:1034CC0040C06130710581059105E9F16F3F7F4F77
:1034DC008F4F9F4FD1F100E010E09801B701A6018A
:1034EC00CE010E949C10811131C088899989AA89CA
:1034FC00BB894C895D896E897F896A017B01E2E019
:10350C00CE1AD108E108F1088C159D05AE05BF0552
:10351C0050F40196A11DB11D888B998BAA8BBB8B86
:10352C008D8181608D837301620144165506660698
:10353C00770608F4B9CF80E009C082E007C082E0CA
:10354C0005C080E003C082E001C081E0DF91CF9133
:10355C001F910F91FF90EF90DF90CF90BF90AF90A5
:0A356C007F906F905F904F900895DC
:103576006F927F928F92AF92BF92CF92DF92EF922D
:10358600FF920F931F933A01862E5801690181110C
:1035960060C0E114F10409F45EC080916D0380FD02
:1035A6005CC080916D0382FD5AC080916C0383FDDF
:1035B60009C0092E99E0AA0CBB1CCC1CDD1C9A95EF
:1035C600D1F7902D91E0E916F104A1F4B601A50119
:1035D60088E10E949C1C811135C04EEF882DB301F5
:1035E6000E944D2231E020E0892B09F030E0E32EE5
:1035F600F22E28C0867031F0A70160E070E087E9FE
:103606000E949C1CB601A50189E10E949C1C8111A7
:1036160019C04CEF882DB3010E944D22892B39F039
:1036260082E0780E811C91E0E91AF10891F74DEFDE
:1036360060E070E080E00E944D22892B19F4EE24B0
:10364600E394F12C0E94222981E0EF2849F480E0DE
:1036560007C084E005C084E003C083E001C082E0C7
:103666001F910F91FF90EF90DF90CF90BF90AF909A
:083676008F907F906F90089582
:10367E00EF92FF920F931F93CF93DF93EC010E9473
:10368E00DB1D982F811165C08D81813009F057C0E7
:10369E001D828881833009F052C080E092E0FE01E5
:1036AE00F096DF019C011D9221503040E1F782E53A
:1036BE0088AB89AB81E68AAB91E49BAB22E7DE0156
:1036CE00AC5EBD4F2C9311962C9311969C93119634
:1036DE008C93388929899A898B8911963C931196F6
:1036EE002C9311969C9311968C933C852D859E85DB
:1036FE008F8511963C9311962C9311969C9311964F
:10370E008C931D961C9211961C9285E511968C93A6
:10371E008AEA11968C9308A119A12AA13BA10F5FE9
:10372E001F4F2F4F3F4F0C8F1D8F2E8F3F8FAF018F
:10373E0060E8EE24E394F12C89810E94BB1A40E0EC
:10374E0050E060E089810E945D1991E0811101C015
:10375E0090E0892FDF91CF911F910F91FF90EF9005
:02376E000895BC
:10377000A2E0B0E0EEEBFBE10C946B274C016B0197
:10378000FB0122813381A480B580808191819A835D
:10379000898366807780FA0120803180428053805F
:1037A000B201A10157FE07C044275527BA014219AB
:1037B00053096409750937FD03C08D7F9A83898396
:1037C000950157FC05C0898182FD02C083FF02C0BC
:1037D00021503109CE0101967C010AE010E0C601BA
:1037E0000E94761D57FC03C0298122FF0AC0019761
:1037F000F301E80FF91F57FC02C02BE209C02DE2CC
:1038000007C023FF06C00197F301E80FF91F20E26C
:103810002083E980FA80F601208531852150310925
:10382000281B390B860D971DAC0160E88501C4018A
:103830000E94E5229C01F4018081918190FF06C0E5
:10384000F60182819381821793070CF4C9012296B5
:06385000E2E10C94A22746
:103856002F923F924F925F926F927F928F92CF926A
:10386600DF92EF92FF920F931F93CF93DF936C013A
:103876002A013B010E94DB1D81114AC0B301A2014E
:10388600C6010E9434261B012C01D6015C966D935D
:103896007D938D939C935F97F601F09680E092E07E
:1038A600DF019C011D9221503040E1F7D6011A96A6
:1038B6008D919C911B97892B59F4C0E0D0E01FC0D5
:1038C6002196F60182859385C817D90730F017C06F
:1038D600C0E0D0E03F0120E8822EEE24E394F12CF4
:1038E600920181010C0F1D1F211D311D682DA301A1
:1038F600D60111968C910E94BB1A882309F381E0A8
:10390600F601228533852C173D0719F480E001C0A6
:1039160081E0DF91CF911F910F91FF90EF90DF90A3
:10392600CF908F907F906F905F904F903F902F90A9
:023936000895F2
:10393800FF920F931F93CF93DF93C82FD42F152F88
:10394800062FF72E882354F440E050E0BA0187E3AD
:103958000E949C1C823008F052C0CF77CC3059F1BD
:103968000E9422290E9436290E948125892B21F450
:103978000E9422298FEF43C08C2F80640E94312936
:103988008F2D0E943129802F0E943129812F0E947A
:1039980031298D2F0E943129CC2369F129C08FEF5D
:1039A8000E943129CAE08FEF0E94312988233CF513
:1039B800C150C9F724C08CE40E9431298F2D0E9480
:1039C8003129802F0E943129812F0E9431298D2F82
:1039D8000E94312981E00E943129CC3001F3E2CFE5
:1039E80087E80E943129DECF81E00E943129DACFB1
:1039F800C830B1F3F9CF85E90E943129D3CFDF91DF
:0A3A0800CF911F910F91FF900895D8
:103A1200CF93DF93DC01F90168387105F1F05CF4B2
:103A22006138710561F164387105C9F16038710559
:103A320009F056C034C0603C710561F1603F710508
:103A420009F443C0603A710509F04AC0C081D181CE
:103A5200CE010296918380832AC0C081D181CE019A
:103A6200029691838083452B39F04881042E000C05
:103A7200550B660B770B21C0488150E02EC0C081E8
:103A8200D181CE01049691838083488159816A81D4
:103A92007B8113C0C081D181CE0102961AC0C08140
:103AA200D181CE01029691838083452BA1F048817A
:103AB2005981052E000C660B770B4D935D936D9328
:103AC2007C93139781E090E00DC0C081D181CE013B
:103AD2000396918380834881598160E070E0EDCF45
:0A3AE20080E090E0DF91CF9108959D
:103AEC00A0E0B0E0ECE7FDE10C946D27DC012801CF
:103AFC001696AD90BC901797F70180819181129624
:103B0C00ED91FC9113971896CD91DC911997219713
:103B1C00F7FF02C0E1E0F0E0CA0DDB1D188269017D
:103B2C00A1E0B0E08F01021B130B4C01F2E08F22DD
:103B3C009924052C000C66087708CE018A199B097C
:103B4C00CA15DB0519F1411551056105710589F09F
:103B5C00CB01BA01A30192010E94EA26CA01A62F49
:103B6C00B72F605D6A9341E0C41AD108A901BC016A
:103B7C00E4CF98012C0D3D1D121613064CF31C14AA
:103B8C001D0434F48114910419F702C080E090E014
:103B9C00AB2B31F4F701208131812F7E31832083CF
:0A3BAC00CDB7DEB7E0E10C94A427CA
:103BB6006F927F928F92CF92DF92EF92FF920F9346
:103BC6001F93CF93DF93FC0124812223F1F1EC01B3
:103BD6003C01F0E36F0E711C80E8882E0C8D1D8D64
:103BE6002E8D3F8DEE24E394F12C682DA30189815F
:103BF6000E94BB1A81112BC01C820C8D1D8D2E8D2F
:103C06003F8D888D998DAA8DBB8D4CA15DA16EA12E
:103C16007FA168017901C41AD50AE60AF70AC8160F
:103C2600D906EA06FB06A8F44B814230A1F4080F38
:103C3600191F2A1F3B1FEE24E394F12C682DA301C4
:103C460089810E94BB1A80E007C080E005C081E040
:103C560003C080E001C080E0DF91CF911F910F91FA
:103C6600FF90EF90DF90CF908F907F906F900895A8
:103C7600EF92FF920F931F93CF938C01DC01ED908F
:103C8600FC9040E050E0BA010E94AF16C82F8111A7
:103C96001DC0F80146895789608D718DC7010E9444
:103CA6009624C82F811112C0D8015A96ED91FC9125
:103CB6005B978081853E71F0882361F061E070E05A
:103CC600C8010E94D513C82F882319F3C43039F1CF
:103CD600C11126C0F80146895789608D718DC701CB
:103CE6000E949624C82F81111BC0D8015A96ED91C7
:103CF600FC915B9780E2DF011D928A95E9F7A801A6
:103D0600445E5F4F60E82BE030E0F801828D938DD2
:103D16000E94EF2781E0D70114968C9301C0C7E07B
:0E3D26008C2FCF911F910F91FF90EF90089579
:103D34006F927F928F92CF92DF92EF920F931F93A5
:103D4400CF93DF93CDB7DEB7A0970FB6F894DEBF5D
:103D54000FBECDBF3B01882E21E044ED50E060E072
:103D640080E393E00E9435098823B1F010E02AC073
:103D74002CED30E040E08E2DB6010E94AF25800F7F
:103D8400911FFC011082482D93018E2DB6010E94D3
:103D94000C27892B39F411C08E010F5F1F4F680166
:103DA400F0E8EF2E40E353E060E270E0C8010E94C7
:103DB400521F892BE9F610E001C011E080E393E083
:103DC4000E944D27812FA0960FB6F894DEBF0FBE38
:103DD400CDBFDF91CF911F910F91EF90DF90CF90E6
:083DE4008F907F906F9008950D
:103DEC000F931F93CF93DF93EB0181114BC0011500
:103DFC00110509F449C080916D0380FD47C0809185
:103E0C006C0383FD09C0012E19E0220F331F441FE0
:103E1C00551F1A95D1F7102D01301105A1F4BA01D7
:103E2C00A90181E10E949C1C811125C060E072E017
:103E3C00CE010E94B12031E020E0892B09F030E066
:103E4C00032F122F18C0BA01A90182E10E949C1CF9
:103E5C00811111C060E072E0CE010E94B120892B6B
:103E6C0021F0DE5F01501109A9F740E050E0BA01E2
:103E7C008CE00E949C1C0E94222981E0012B39F4C9
:103E8C0080E005C084E003C084E001C083E0DF91E2
:083E9C00CF911F910F910895D1
:103EA4008F929F92AF92BF92CF92DF92EF92FF9246
:103EB4000F931F93CF93DF9300D000D000D0CDB7E2
:103EC400DEB76B0121E0C21AD1081C141D0464F58D
:103ED4005A014C018C01E12CF12C9E012B5F3F4FC8
:103EE40041E050E0BE016F5F7F4FC5010E94120E9A
:103EF4008D819E81019771F499810F5F1F4FF801A5
:103F0400319790838FEFE81AF80A9A3019F0EC147D
:103F1400FD041CF3F8011082EF2819F0882D992D67
:103F240007C080E090E004C0FC01108280E090E0D3
:103F340026960FB6F894DEBF0FBECDBFDF91CF91AA
:103F44001F910F91FF90EF90DF90CF90BF90AF90B3
:063F54009F908F9008957C
:103F5A00A2E0B0E0E3EBFFE10C946F275C016B0198
:103F6A00FB012281338184809580808191819A83AB
:103F7A0089836680778037FD03C08D7F9A83898322
:103F8A00FA014081518162817381CE0101967C01DF
:103F9A0008E010E09401C6010E94761D298124FFE1
:103FAA0006C00197F301E80FF91F20E32083298156
:103FBA0023FF06C00197F301E80FF91F20E22083CF
:103FCA00E980FA80F6012085318521503109281BC4
:103FDA00390B860D971DAC0160E88401C5010E946A
:103FEA00E5229C01F5018081918190FF06C0F601CE
:103FFA0082819381821793070CF4C9012296EEE01D
:04400A000C94A62745
:10400E00EF92FF920F931F93CF93DF9300D0CDB714
:10401E00DEB78C01BE016F5F7F4F0E94DD258111DF
:10402E003CC0F801968596FF38C0448D558D668D3F
:10403E00778D89819A810E94962481112EC0F80174
:10404E00E0A0F1A0F701838580628387F8012681C5
:10405E00378140855185B701808191810E94A928C1
:10406E00F8013285238594858585F701348F258F58
:10407E00968F878F168A178A81E2808F8AE5818FC5
:10408E00128A138A89819A8121E0FC0124830E947D
:10409E003F1BF80196859F7B96870F900F90DF91BF
:0C40AE00CF911F910F91FF90EF900895AB
:1040BA00CF93DF93C0E0D0E08BB1806F8BB98BB127
:1040CA0087608BB9289A209711F45F980EC0C13087
:1040DA00D10511F45E9809C0C230D10511F45D987A
:1040EA0004C0C330D10509F45C9865E070E080E053
:1040FA0090E00E942D27489908C0CC0FDD1FCC0FF5
:10410A00DD1FCC5ADC4F888124C0499908C0CC0FE6
:10411A00DD1FCC0FDD1FCC5ADC4F89811AC04A99AA
:10412A0008C0CC0FDD1FCC0FDD1FCC5ADC4F8A81B3
:10413A0010C0189908C0CC0FDD1FCC0FDD1FCC5A58
:10414A00DC4F8B8106C02196C430D10509F0B4CF6B
:08415A0080E0DF91CF91089590
:10416200CF92DF92EF92FF920F931F93CF93DF9341
:10417200082F192FEB01C0906403D0906503E090E3
:104182006603F09067038FEF0E9431298F3FA1F4FD
:104192008091640390916503A0916603B0916703D7
:1041A2008C199D09AE09BF09883C9105A105B1058D
:1041B20050F380E090E01FC08E3FD9F4E02EF12E44
:1041C2008FEF0E943628F70180838FEF0E943628F6
:1041D200F70181832297F2E0EF0EF11C209781F71D
:1041E2008FEF0E9431298FEF0E94312981E090E008
:1041F20002C080E090E0DF91CF911F910F91FF907C
:08420200EF90DF90CF900895CA
:10420A001F93CF93DF93CDB7DEB728970FB6F894F5
:10421A00DEBF0FBECDBF9D838C834E835F836887CD
:10422A00122F49835A836B83CE0101960E9459212A
:10423A0099236CF1FC01EE0FFF1FE659FC4FA08198
:10424A00B181109741F0FC01EE0FFF1FE659FC4FB8
:10425A00118210821C92EC81FD81309769F0818372
:10426A00EC81FD811082880F991FFC01E659FC4FF1
:10427A008C819D8191838083112359F040E0BE0196
:10428A006C5F7F4FCE0106960E94220103C08BE02D
:10429A0001C080E028960FB6F894DEBF0FBECDBFEE
:0842AA00DF91CF911F910895EF
:1042B2006F927F928F92CF92DF92EF92DC016D909C
:1042C2007D908C90129761147104810479F1482DCC
:1042D20093012F5F3F4F4F4F6901E42E81E0C81ACF
:1042E200D108E108F6019491E7FC9081913218F02F
:1042F2009A3379F702C09A33E1F4F301849187FC8F
:10430200808190ED980F9A30B8F492E0690E711C9A
:10431200811C26153705480591F490E0C0971816C0
:10432200190684F02D933D934C930EC08FEF9FEFAF
:104332000BC080E090E008C08FEF9FEF05C08FEFC9
:104342009FEF02C08FEF9FEFEF90DF90CF908F90A3
:064352007F906F900895BA
:104358006F927F928F92EF92FF920F931F93CF935A
:10436800DF93CDB7DEB761970FB6F894DEBF0FBE07
:10437800CDBFFE01319651E1DF011D925A95E9F753
:10438800A2E0B1E0BA83A9839C838B8377FF09C03D
:104398008FE490E090935303809352038FEF9FEF45
:1043A80019C03901842E7C01615071097F836E83A5
:1043B8009801682DA301CF010E94082848855985D6
:1043C8002E813F814217530708F49A01F701E20F43
:1043D800F31F108261960FB6F894DEBF0FBECDBFF3
:1043E800DF91CF911F910F91FF90EF908F907F9069
:0443F8006F90089525
:1043FC00CF92DF92EF92DC0190E0292F30E0220F78
:10440C00331F6901032E000CEE086E2DA6014F5DC3
:10441C005D4F6F4F6A01E62EFA018491E7FC8081B3
:10442C0081110DC02F5F3F4F032E000C440B2F5DED
:10443C003D4F4F4FF901849147FD808124C0CD90B1
:10444C00DD90EC901297F6014491E7FC40818413C7
:10445C0015C02F5F3F4F032E000C440B2F5D3D4FBB
:10446C004F4FF901949147FD90815FEFC51AD50A22
:10447C00E50ACD92DD92EC92129701C09F5F9B30C2
:0E448C0008F4BBCF892FEF90DF90CF900895FA
:10449A006F927F928F92CF92DF92EF92CF936B01BE
:1044AA00E82EC42F0E9481250097B1F18C2F0E941B
:1044BA003129CD3F79F136018E2C82E0780E811CAC
:1044CA00F6018491E7FC80810E94312982E0C80EBE
:1044DA00D11CE11CAE2DC6010197A109FC018491F2
:1044EA00A7FD80810E9431296C147D048E0441F756
:1044FA008FEF0E9431298FEF0E9431298FEF0E949E
:10450A0031298F7131E020E0853009F030E0832FC6
:10451A00922F02C081E090E0CF91EF90DF90CF9090
:08452A008F907F906F900895BF
:104532000F931F93CF93DF93DB01109719F48FEF43
:104542009FEF3DC02D913C91119730FF25C01796EA
:104552004D915C91189715962D913C9116974217A3
:10456200530778F41296ED91FC911397808312967B
:104572002D913C9113972F5F3F4F13963C932E93AF
:10458200129717962D913C9118972F5F3F4F1896CF
:104592003C932E93179713C01D96ED91FC911E9795
:1045A200309769F2EB01092F182F0995892B39F6FB
:1045B2008F819885019698878F83812F902FDF9125
:0845C200CF911F910F910895A4
:1045CA006F927F928F92AF92BF92CF92DF92EF92C9
:1045DA00FF920F931F93CF93DF935C013A01862ECC
:1045EA00E901670181E0C822DD24E0FC03C020174D
:1045FA00310758F09E01682DA301C5010E944D257F
:10460A00C017D10710F0CE0118C07801EC1AFD0AC4
:10461A00E114F10449F0B50180E290E00E94992288
:10462A0081E0E81AF108F4CFCD2831F49E01682D13
:10463A00A301C5010E944D25C801DF91CF911F91A9
:10464A000F91FF90EF90DF90CF90BF90AF908F9037
:06465A007F906F900895AF
:104660008F929F92AF92BF92CF92DF92EF929B0177
:10467000482FA82FCB010396A11DFC016491A7FD33
:104680006081862F90E0A0E0B0E08824982EA92ECB
:10469000BA2E6901E42E82E0C80ED11CE11CF6019D
:1046A0005491E7FC5081D501C401852B8824982EB4
:1046B000A92EBA2E6901E42E8FEFC81AD80AE80A8B
:1046C000F6015491E7FC5081D501C401852BBA2F26
:1046D000A92F982F8827F901249147FD2081BC013B
:1046E000CD01622BEF90DF90CF90BF90AF909F9065
:0446F0008F9008950A
:1046F400A3E8B0E0E0E8F3E20C9471275C0149011F
:10470400CF57DF4F488359836A83C158D040C12CA7
:10471400D12CCF57DF4F2881C158D040CE57DF4F1F
:104724009881C258D040CD57DF4F8881C358D040BC
:10473400E22FF92F949187FD90819923E9F0740178
:10474400860120E830E0AE014F5F5F4FBE016F5736
:104754007F4FC5010E94C3048C0D9D1D8C159D05C2
:104764004CF48FE490E090935303809352038FEFC3
:104774009FEF03C06C01CDCFC601CD57DF4FECE0F6
:044784000C94A827C2
:10478800CF92DF92EF920F931F93DC019A01462F8D
:104798006901E42E5BE1C50ED11CE11CF6016491B0
:1047A800E7FC608170E0762F66276901E42E8AE1D4
:1047B800C80ED11CE11CF6018491E7FC8081682BAE
:1047C80080E090E05C915330F1F46901E42E55E10A
:1047D800C50ED11CE11CF6010491E7FC008110E034
:1047E800102F00272C5E3F4F4F4FF901249147FDB2
:1047F8002081022B20E030E0980111270027602B50
:10480800712B822B932B1F910F91EF90DF90CF90FC
:02481800089501
:10481A00A2E0B0E0E3E1F4E20C946F275C016B01E3
:10482A00FB012281338184809580808191819A83E2
:10483A0089836680778037FD03C08D7F9A83898359
:10484A00FA014081518162817381CE0101967C0116
:10485A000AE010E09401C6010E94761DE980FA8000
:10486A00F6012085318521503109281B390B860D27
:10487A00971DAC0160E88401C5010E94E5229C01F4
:10488A00F5018081918190FF06C0F60182819381B2
:10489A00821793070CF4C9012296EEE00C94A6271E
:1048AA00229A219A2A9A299862E370E080E090E09D
:1048BA000E942D27299A62E370E080E090E00E942E
:1048CA002D270E94FD286FE081E00E949C2862E368
:1048DA0070E080E090E00E942D276DE88AE20E9455
:1048EA009C286EE38BE20E949C286EE18DE20E9476
:1048FA009C2860E08CE20E949C2860E485E10E948A
:10490A009C286DE381E10E949C2884E10E94C228D0
:10491A00982F937029F4682F636084E10E949C2881
:02492A000895EE
:10492C008F929F92AF92BF92FF920F931F93CF9350
:10493C00DF93EC014A015B018C8D9D8DAE8DBF8D9B
:10494C0084179507A607B707E9F0CE010E94DB1D77
:10495C00F82E811118C001E010E0A5019401BE01F0
:10496C00605D7F4F89810E94F61E882331F0FF2401
:10497C00F39488248A94982C54018C8E9D8EAE8E40
:10498C00BF8E01C0F12C8F2DDF91CF911F910F9114
:0C499C00FF90BF90AF909F908F90089507
:1049A8006F927F928F92CF92DF92EF92FF920F9346
:1049B8001F93CF93DF936C01FB013901842EC8014B
:1049C800C281D38104811581E080F180232B242BBF
:1049D80031F427E3622E22E0722E20E0822E009727
:1049E80021F4882DB3010E942028D7FD04C0C817E0
:1049F800D90708F4CE019C01682DA301C6010E94C5
:104A0800E522DF91CF911F910F91FF90EF90DF90FA
:0A4A1800CF908F907F906F9008956B
:104A2200DC012D913D914C911297F901849147FD42
:104A320080818A3221F080E090E07AE011C02F5F1D
:104A42003F4F4F4F2D933D934C93DB01ED91FC91E2
:104A52001197CF0102968D939C9380819181089545
:104A62002D913D914C911297F901549147FD50813E
:104A720050535A3080F4789FF001799FF00D112441
:104A8200CF01850F911D2F5F3F4F4F4F2D933D93C8
:084A92004C931297E5CF089543
:104A9A006F927F928F92CF92DF92EF920F931F9332
:104AAA00CF93DF938C016A01E62EE9013A01862E43
:104ABA00620E731E811C37FD8A94C614D704E8045B
:104ACA0079F0F6018491E7FC8081B801082E000C88
:104ADA00990B0E9499228FEFC81AD80AE80AEDCFDB
:104AEA00CE01DF91CF911F910F91EF90DF90CF9080
:084AFA008F907F906F900895EA
:104B0200CF92DF92EF92FF92C0906403D090650340
:104B1200E0906603F09067038FEF0E9431298F3F88
:104B220089F040916403509165036091660370912E
:104B320067034C195D096E097F09443F51406105C5
:104B4200710550F321E030E08F3F11F020E030E0BA
:0C4B5200C901FF90EF90DF90CF90089514
:104B5E006F927F928F92CF92DF92EF92CF93DF93ED
:104B6E006B01E82E3901842EC0E0D0E0F6014491AD
:104B7E00E7FC4081442381F0042E000C550B882D58
:104B8E00B3010E945D28672B682B31F48FEFC81A92
:104B9E00D80AE80A2196EACFCE01DF91CF91EF90A5
:0C4BAE00DF90CF908F907F906F90089563
:104BBA000F931F93CF93DF93EC018B01892BE1F0C5
:104BCA00E881F9813097C1F080818823A9F02A8190
:104BDA003B81868197812817390771F481810E9468
:104BEA00152980FD09C004C0F8013183208308C05B
:104BFA002881398180E0F8CF89E020E030E0F4CFE5
:0A4C0A00DF91CF911F910F910895E3
:104C1400CF92DF92EF920F931F936B01E82E011551
:104C24001105A1F0F6018491E7FC8081F90154910A
:104C340047FD508185130DC0015011098FEFC81A2B
:104C4400D80AE80A2F5F3F4F4F4FE9CF80E090E04A
:104C540003C090E0851B91091F910F91EF90DF90A5
:044C6400CF90089550
:104C68000F931F93FC019A01AB01225031094109AE
:104C7800510984899589A689B7890297A109B1093B
:104C8800281739074A075B0768F4A285B3850E948D
:104C9800CD2804A515A526A537A5600F711F821F6D
:104CA800931F03C060E070E0CB011F910F9108953E
:104CB800EF92FF920F931F93CF93DF9300D0CDB75E
:104CC800DEB77C0183E9F701808380E2818360E0BD
:104CD8008DE00E949C288E010F5F1F4F970142E0D4
:104CE800B7018CE00E9482180F900F90DF91CF914E
:0A4CF8001F910F91FF90EF900895B7
:104D020087B18F6087B9269A279A64E170E080E0C4
:104D120090E00E942D2783E30E94BD2782E30E9438
:104D2200BD2788E20E94BD278CE00E94BD2786E055
:104D32000E94BD2781E00E94BD2762E070E080E012
:084D420090E00E942D27089566
:104D4A001F921FB61F9211248F939F93AF93BF9305
:104D5A008091640390916503A0916603B091670303
:104D6A000196A11DB11D8093640390936503A093DE
:104D7A006603B0936703BF91AF919F918F911F9084
:064D8A001FBE1F901895EA
:104D9000EF92FF920F931F93CF93DF9300D0CDB785
:104DA000DEB77B01FB01808367E08DE00E949C28D9
:104DB0008E010F5F1F4F970141E0B7018CE00E9409
:104DC00082180F900F90DF91CF911F910F91FF905C
:044DD000EF900895C3
:104DD400A1E21A2EAA1BBB1BFD010DC0AA1FBB1FFB
:104DE400EE1FFF1FA217B307E407F50720F0A21B6D
:104DF400B30BE40BF50B661F771F881F991F1A94DA
:104E040069F760957095809590959B01AC01BD0103
:044E1400CF0108952D
:104E1800CF92DF92EF926B01E82EF6018491E7FCC6
:104E28008081F901549147FD508185130BC0882377
:104E380041F08FEFC81AD80AE80A2F5F3F4F4F4F4B
:104E4800ECCF582F90E0851B9109EF90DF90CF9021
:024E58000895BB
:104E5A000F931F938B019C0140916403509165034A
:104E6A006091660370916703809164039091650372
:104E7A00A0916603B0916703841B950BA60BB70B31
:104E8A0080179107A207B30778F31F910F9108952E
:104E9A000F931F93CF93DF9300D0CDB7DEB78C016A
:104EAA000E94072081110BC0BE016F5F7F4FC801AE
:104EBA000E94DD25811103C0F801118210820F9032
:0C4ECA000F90DF91CF911F910F91089580
:104ED6002F923F924F925F926F927F928F929F9204
:104EE600AF92BF92CF92DF92EF92FF920F931F93F2
:104EF600CF93DF93CDB7DEB7CA1BDB0B0FB6F894A3
:084F0600DEBF0FBECDBF099410
:104F0E00CF92DF92EF926B01E82EFB018491E7FCCA
:104F1E008081882361F09FEFC91AD90AE90A0E949D
:104F2E00D627F6018491E7FC80818111F4CFEF90B2
:064F3E00DF90CF90089502
:104F44002A88398848885F846E847D848C849B8415
:104F5400AA84B984C884DF80EE80FD800C811B8123
:104F6400AA81B981CE0FD11D0FB6F894DEBF0FBE52
:064F7400CDBFED01089520
:104F7A00CF93C82F2E9888B1807F88B988B19C2F8B
:104F8A0092959F70892B88B90E94702888B1807F7A
:104F9A0088B988B1CF70C82BC8B90E947028CF9140
:024FAA00089568
:104FAC00CF93C82F2E9A88B1807F88B988B19C2F57
:104FBC0092959F70892B88B90E94702888B1807F48
:104FCC0088B988B1CF70C82BC8B90E947028CF910E
:024FDC00089536
:104FDE00CF92DF92EF926A01E62EDC01280F391F85
:104FEE00A217B30751F0F6014491E7FC40814D93AF
:104FFE004FEFC41AD40AE40AF3CFEF90DF90CF90AC
:02500E00089503
:10501000A2E0B0E0EEE0F8E20C9479278C013A834C
:1050200029839E012F5F3F4F0E947A23F801208140
:1050300024FF02C08FEF9FEF2296E4E00C94B0278C
:10504000CF92DF92EF926B01E82EA82FCB01FC01EB
:105050002491A7FD2081222319F00196A11DF7CFED
:0C5060008C199D09EF90DF90CF9008950F
:10506C00282F98E080E0222314F42B9A01C02B986F
:10507C00220F00002D9A0000880F349981602D9822
:08508C000000915081F7089526
:10509400A0E0B0E0E0E5F8E20C947B279E01265FF7
:1050A4003F4F4F81588569858D819E810E94B62826
:0650B400E2E00C94B227BB
:1050BA00A82FCB01FC012491A7FD2081241741F0E0
:1050CA000196A11D2111F6CF60E070E080E00895FD
:0650DA00BC018A2F0895BD
:1050E0002F9A61E070E080E090E00E942D272F98D9
:0E50F00061E070E080E090E00E942D270895BE
:1050FE00A29FB001B39FC001A39F700D811D11240B
:0E510E00911DB29F700D811D1124911D0895F9
:10511C0084B5826084BD85B5836085BDEEE6F0E024
:0C512C008081826080838CE787BD08953D
:10513800CF93C62F2A98880F8E770E941C298C2F10
:0A5148000E941C292A9ACF910895B5
:10515200FB01228F338FDC018C91833029F4CA0149
:0A516200AA27BB27848B958B0895C4
:10516C000F931F9389019A01462F6FEF7FE70E94DF
:08517C00AC211F910F91089571
:105184002A98880F8E7780680E941C2980E00E94EC
:065194001C292A9A08956F
:10519A000E947F28A59F900DB49F900DA49F800D1B
:0651AA00911D112408957F
:1051B000EC010E943D290E943C29CE010E943E291B
:0651C000CE010E943A2915
:1051C600FC01480F591FE417F50711F06193FBCF57
:0251D60008953A
:1051D8009C01215631092A31310510F48F75992720
:0251E800089528
:1051EA008AB1806F8AB98AB1887F8AB9209808956E
:1051FA00239A259A229A2A9A249881E58CBD0895A1
:10520A008CB58F7B8CBD84B1886284B92D98089542
:10521A009C01215431092A31310508F4806208952C
:0E522A00811103C080916D03089581E0089505
:0C5238008EBD0DB407FEFDCF8EB50895AD
:0C5244000E9438298FEF0E943129089544
:06525000539A5B9A0895D9
:065256003C984498089505
:06525C0081E58CBD089500
:065262000E9436280895A9
:045268000C940000A2
:04526C005B980895AE
:045270005B9A0895A8
:045274000E9468002C
:02527800089597
:02527A00089595
:02527C00089593
:10527E003132334134353642373839432A302344BC
:01528E00011E
:00000001FF
