:100000000C9443000C943B2D0C943B2D0C943B2DF5
:100010000C943B2D0C943B2D0C943B2D0C943B2DC0
:100020000C943B2D0C943B2D0C943B2D0C943B2DB0
:100030000C943B2D0C943B2D0C941A2A0C943B2DC4
:100040000C943B2D0C943B2D0C943B2D0C943B2D90
:100050000C943B2D0C943B2D0C943B2D0C943B2D80
:100060000C943B2D0C943B2D01000354800354034E
:1000700064005A8C0364036D80036D036E000303F8
:10008000036E036F800011241FBECFEFD8E0DEBFE8
:10009000CDBFE8E6F0E040E017C0B591A5913591FD
:1000A0002591059107FD0CC095918591EF01F92FE0
:1000B000E82F05900D92A217B307D9F7FE0104C0EF
:1000C0001D92A217B307E1F7E538F40731F70E9454
:0A00D0008E0E0C94D82CF894FFCF8C
:1000DA002020202020202020202020202020202016
:1000EA00002A007569642E747874000D0A0025735D
:1000FA003A25730D0A0025733A25730025730D0AF4
:10010A0000313A556E6C6F636B20323A50494E009B
:10011A00333A4C6F676F757400446F6F72204F707B
:10012A00656E00446F6F72204C6F636B6564004E9E
:10013A0065772050494E3A00436F6E6669726D20AA
:10014A0050494E3A0050494E204D69736D617463AF
:10015A0068210050494E204368616E67656421003A
:10016A004368616E6765204661696C656421004C6D
:10017A006F6767696E67206F75740053797374656A
:10018A006D204C6F6164696E6700004D6E74204586
:10019A0072723A202564005363616E20436172646F
:1001AA000052656164792E2E2E0025303258253092
:1001BA003258253032582530325800436172642053
:1001CA00446574656374656400456E746572205095
:1001DA00494E3A00416363657373204772616E74D6
:1001EA00656400496E76616C69642050494E005519
:1001FA006E726567697374657265640041646D69DE
:10020A006E20506173733A0031323334005365748F
:10021A00204E65772050494E004361726420536135
:10022A007665640053617665204661696C65640091
:0E023A004163636573732044656E69656400FB
:10024800809A45418E418F804545454949498E8F61
:100258009092924F994F555559999A9B9C9D9E9F64
:1002680041494F55A5A5A6A7A8A9AAABACADAEAF65
:10027800B0B1B2B3B4B5B6B7B8B9BABBBCBDBEBFFE
:10028800C0C1C2C3C4C5C6C7C8C9CACBCCCDCECFEE
:10029800D0D1D2D3D4D5D6D7D8D9DADBDCDDDEDFDE
:1002A800E0E1E2E3E4E5E6E7E8E9EAEBECEDEEEFCE
:1002B800F0F1F2F3F4F5F6F7F8F9FAFBFCFDFEFFBE
:1002C8004641543332202020002A2B2C3A3B3C3D17
:0802D8003E5B5D7C223F7F00CC
:1002E00068076C094C836A9074A07AC000806888A3
:0602F00000846C82008115
:0702F600286E756C6C2900F5
:0602FD00286E696C290067
:0103030001F8
:100304002F923F924F925F926F927F928F929F9221
:10031400AF92BF92CF92DF92EF92FF920F931F930F
:10032400CF93DF93CDB7DEB76E970FB6F894DEBFE9
:100334000FBECDBF7B01D42EDB011D921C920E9407
:10034400CE2499230CF4ACC2880F991FFC01E65902
:10035400FC4F008111810115110509F4A3C2F701B5
:1003640011830083FD2DFE7FDF2ED8018C9188231D
:1003740069F011968C910E94152D80FD07C0DD2037
:1003840009F492C282FF92C28AE042C3F801108249
:1003940081810E94351580FD8BC2DD2009F4AEC237
:1003A40082FD88C240E050E0BA01C8010E94EC120C
:1003B40082309105D1F54801FAE08F1AFEEF9F0AC9
:1003C4009E012F5F3F4F79016E0131E1C30ED11CB5
:1003D4005701B40180E80E94A526D5016D937D9351
:1003E4008D939D935D01B0E18B0E911CAC14BD0403
:1003F40081F70F2EF3E0AF2EF02DB12CF7014191D0
:100404005191619171917F0141155105610571050A
:1004140039F0C8010E94EC128230910518F479C2B7
:100424008A2D9B2DCE14DF0449F78430910509F4FD
:1004340043C2029708F042C29801255C3F4F40E84E
:10044400A42FC9010196A11DFC018491A7FD8081FF
:1004540090E0982F8827F901249147FD2081822B71
:100464008115924009F02CC2C8018A5B9F4FA0E815
:100474009C014A2F2F5F3F4F4F4FF901849047FD56
:100484008080912C982C8824FC018491A7FD808184
:10049400882A940140E050E0298B3A8B4B8B5C8B8B
:1004A400232B242B252B51F4B8016C5A7F4F80E861
:1004B4000E94A526698B7A8B8B8B9C8BD8015C96CA
:1004C4008D909D90AD90BC905F9729893A894B8916
:1004D4005C8958962D933D934D935C935B97F801FB
:1004E400E05CFF4F7080F80173828FEF870D8230DC
:1004F40008F0E8C135AC832D90E09387828700979C
:1005040009F4E2C19C012150310982239323892BF0
:1005140009F0DCC198012F5B3F4F40E8A42FC901CB
:100524000196A11DFC018491A7FD808190E0982F84
:100534008827F901249147FD2081AC01422B5E8B71
:100544004D8BD80119965C934E931897CA018F70FE
:100554009927892B09F0BCC1C8018D5B9F4FA0E886
:100564009C014A2F2F5F3F4F4F4FF901C49047FD25
:10057400C080D12CDC2CCC24FC018491A7FD80818B
:10058400C82AE12CF12CC114D104E104F10441F492
:10059400B801605B7F4F80E80E94A5266B017C0157
:1005A4009801225C3F4F40E8A42FC9010196A11D88
:1005B400FC018491A7FD808190E0982F8827F901A0
:1005C400249147FD2081FC01E22B309709F482C17C
:1005D400A72DB0E029893A894B895C890E94CD2CEA
:1005E4006B8F7C8F8D8F9E8F9F0140E050E02F8B0F
:1005F400388F498F5A8F8D899E89929582958F70F5
:1006040089279F708927280F391F411D511D4B8C45
:100614005C8C6D8C7E8C420E531E641E751EC4143D
:10062400D504E604F70408F457C1C701B6016419F8
:10063400750986099709232D30E040E050E00E94B7
:100644005F2ADA01C901211531054105510509F473
:1006540045C1263F6FEF360746076FE0560730F473
:100664000F2EF3E02F2E312CF02D02C0212C312C33
:10067400863FEFEF9E07A105B10520F4689422247C
:1006840021F8312C863F9F40A105B10508F493C1A0
:100694002114310409F424C169017A0162E0C60E0F
:1006A400D11CE11CF11CD8015496CD92DD92ED923F
:1006B400FC925797F80180A291A2A2A2B3A28F89BB
:1006C400988DA98DBA8D880D991DAA1DBB1D84A373
:1006D40095A3A6A3B7A3B501A401440D551D661D9A
:1006E400771D44A755A766A777A7F3E02F16310413
:1006F40009F04BC09801265A3F4F40E8A42FC90186
:100704000196A11DFC018491A7FD808190E0982FA2
:100714008827F901249147FD2081822B892B09F038
:10072400E1C02D893E89232B09F0DEC0B801645A4B
:100734007F4F80E80E94A526D80198966D937D93FB
:100744008D939C939B97CC0CDD1CEE1CFF1CCC0C56
:10075400DD1CEE1CFF1CBFEFCB0EB1E0DB1EE11C69
:10076400F11C0B2EB9E0F694E794D794C794BA958C
:10077400D1F7B02D29893A894B895C892C153D051F
:100784004E055F0508F4B2C0F0C04D895E89452B63
:1007940009F4AEC04B8C5C8C6D8C7E8C480E591E5B
:1007A4006A1E7B1ED80198964D925D926D927C9242
:1007B4009B97B2E02B16310429F4CC0CDD1CEE1C03
:1007C400FF1CBAC0A3E0B0E0A70196010E94CD2CA3
:1007D400DC01CB01B695A79597958795E1E0CE22EC
:1007E400DD24EE24FF24C80ED91EEA1EFB1EA4C07D
:1007F400B501A4014F5F5F4F6F4F7F4FC8010E9447
:100804000B2881113CC0D80115961C92B801605D7B
:100814007F4F80E80E94A526623572458146914447
:1008240071F5B8016C5E7D4F80E80E94A5266237A1
:1008340072478144914619F5B801645D7D4F80E8A3
:100844000E94A5266115710585459A4AC1F4B8012F
:10085400685E7D4F80E80E94A526D80150966D936E
:100864007D938D939C935397B801645E7D4F80E88C
:100874000E94A526F8016487758786879787D80123
:100884002C92809168039091690301969093690377
:100894008093680317969C938E93169780E0B8C054
:1008A4008BE0B6C08CE0B4C080E0B2C080E0B0C0E1
:1008B40083E0AEC08AE0ACC081E0AAC08DE0A8C0ED
:1008C4008DE0A6C08DE0A4C08DE0A2C08DE0A0C0E4
:1008D4008DE09EC08DE09CC08DE09AC08DE098C0F4
:1008E4008DE096C08DE094C08DE092C08DE090C004
:1008F4008DE08EC081E08CC08DE08AC040E050E085
:10090400BA01C8010E94EC128230910509F08DCD24
:1009140052CD049709F090CDEDCF8FEF9FEFDC011E
:10092400F801808B918BA28BB38B84879587A687E4
:10093400B78780E88583A3CFFFEFCF0EF1E0DF1EFA
:10094400E11CF11C0B2EB9E0F694E794D794C794FC
:10095400BA95D1F7B02D29893A894B895C892C1530
:100964003D054E055F0540F2D8CF8FEF9FEFDC01C8
:10097400F801808B918BA28BB38B84879587A68794
:10098400B78780E885839801205A3F4F40E8A42F19
:10099400C9010196A11DFC018491A7FD808190E00D
:1009A400982F8827F901249147FD2081822B0197F4
:1009B40009F065CF1DCF69017A01F2E0CF0ED11C99
:1009C400E11CF11CD8015496CD92DD92ED92FC927B
:1009D4005797F80180A291A2A2A2B3A28F89988D01
:1009E400A98DBA8D880D991DAA1DBB1D84A395A33D
:1009F400A6A3B7A3B501A401440D551D661D771D1B
:100A040044A755A766A777A722242394312CBDCEEB
:100A14006E960FB6F894DEBF0FBECDBFDF91CF91B7
:100A24001F910F91FF90EF90DF90CF90BF90AF9008
:100A34009F908F907F906F905F904F903F902F90FA
:020A4400089513
:100A46002F923F924F926F927F928F929F92AF9288
:100A5600BF92CF92DF92EF92FF920F931F93CF93A5
:100A6600DF93CDB7DEB72E970FB6F894DEBF0FBE75
:100A7600CDBF4C016B0138011A8219828FEF9FEFAF
:100A86009C838B831E821D8258874F833A872987D2
:100A9600A12CB12CD6012D913D914C912A0D3B1DD7
:100AA600411DB7FC4A95F901849147FD808181116A
:100AB60016C0F601208331834283F901849147FDF4
:100AC6008081853209F00FC21901442EFFEF2F1ADB
:100AD6003F0A4F0AD6012D923D924C921BC0853299
:100AE60041F3B401082E000C990B0E940E264FEF1D
:100AF600A41AB40ACFCF2C32DCF02D3229F5298185
:100B06003A8121603A8329830196A11DF6018083EB
:100B16009183A283F60180819181A281FC012491B7
:100B2600A7FD20812B3239F729813A812460EACF4B
:100B3600203221F429813A812860E4CF233251F40E
:100B460029813A812061DECF203321F429813A813F
:100B56002260D8CFB701C6010E9486289E838D8366
:100B660097FF0BC029813A81F1E02F273A83298329
:100B76009195819591099E838D8389819A8180FFC4
:100B860003C08D7F9A838983F60180819181A2813A
:100B9600FC012491A7FD20812E3261F40196A11D4E
:100BA600F60180839183A283B701C6010E9486283D
:100BB6009C838B83C6010E947325182FD6012C9126
:100BC60011968C91119712969C91E22FF82F849191
:100BD60097FD8081082E000C990B0E940D2D8936F9
:100BE60009F44AC084F4833609F419C134F4853211
:100BF60009F445C18136E1F050C18436E9F1883601
:100C06000CF4E9C04AC1803709F4B0C03CF48E3612
:100C160009F4D6C08F3609F46DC03FC1853709F493
:100C26004AC0883709F485C0833709F036C10DC13B
:100C3600612F70E0A701CE010B960E940000892B60
:100C460009F448C1F60180819181A2819C014A2F55
:100C56002F5F3F4F4F4F208331834283FC01249106
:100C6600A7FD2081AE01455F5F4FBE016F5F7F4FDD
:100C7600C4010E9400002BC1612F70E0970141E082
:100C860050E0CE010B960E947420892B09F422C1F4
:100C9600F60180819181A2810196A11D80839183B5
:100CA600A283AE01455F5F4FBE016F5F7F4FC401F8
:100CB6000E94B41E0CC1612F70E0970140E050E025
:100CC600CE010B960E947420892B09F403C1F6010C
:100CD60080819181A2810196A11D80839183A28347
:100CE600AE01455F5F4FBE016F5F7F4FC4010E943B
:100CF6008227EDC0612F70E0970140E050E0CE0101
:100D06000B960E947420892B09F4E4C0F6018081B9
:100D16009181A2810196A11D80839183A283AE0158
:100D2600455F5F4FBE016F5F7F4FC4010E94222364
:100D3600CEC0612F70E0970140E050E0CE010B96E7
:100D46000E947420892B09F4C5C0F6018081918127
:100D5600A2819C014A2F2F5F3F4F4F4F2083318343
:100D66004283FC012491A7FD208120C0970140E029
:100D760050E060EF70E0CE010B960E947420892B44
:100D860009F4A8C0F60180819181A2810196A11D76
:100D960080839183A2838B859C85892B31F400E027
:100DA60010E02DEF32E040E08CC028E7AE01455F51
:100DB6005F4FBE016F5F7F4FC4010E94221887C03C
:100DC600A501460D571D612F70E09701CE010B96C8
:100DD6000E9400007FC0612F70E0A701CE010B9634
:100DE6000E940000892B09F475C0F601808191816B
:100DF600A2819C014A2F2F5F3F4F4F4F20833183A3
:100E06004283FC012491A7FD2081AE01455F5F4F1F
:100E1600BE016F5F7F4FC4010E94000058C01038AA
:100E260009F058C0F60180819181A2810196A11D29
:100E360080839183A283D701ED91FC911197CF0115
:100E460002968D939C93808126C0103809F042C08B
:100E5600F60180819181A2810196A11D80839183F3
:100E6600A283D701ED91FC911197CF0103968D9343
:100E76009C9320813181428100E010E022C010382D
:100E860049F5F6012081318142812F5F3F4F4F4F57
:100E96002083318342838B870EC085E28B87F601E0
:100EA6002082318242821A8219821E821D828FEF2F
:100EB6009FEF9C838B839E01255F3F4F40E801E0B7
:100EC60010E0BE016F5F7F4FC4010E9449288A0D62
:100ED6009B1D0AC0F60180819181A2810196A11D08
:100EE60080839183A283C5012E960FB6F894DEBF48
:100EF6000FBECDBFDF91CF911F910F91FF90EF9065
:100F0600DF90CF90BF90AF909F908F907F906F9023
:080F16004F903F902F900895C9
:100F1E002F923F924F925F926F927F928F929F92FB
:100F2E00AF92BF92CF92DF92EF92FF920F931F93E9
:100F3E00CF93DF93CDB7DEB72A970FB6F894DEBF07
:100F4E000FBECDBF6C012A01662E59014801D80192
:100F5E001D921C928D83DE82BE016F5F7F4F0E94B9
:100F6E0052298111C2C1F60187858111BEC18685C4
:100F7E0081FFBAC180899189A289B389AC01BD0173
:100F8E004A0D5B1D611D711D481759076A077B07C6
:100F9E0018F45C01A094B094A114B10409F49EC19C
:100FAE0077247394F60180899189A289B389AC0163
:100FBE00BD01517066277727452B462B472B09F02D
:100FCE002AC1E981FA810285138501501109AC010C
:100FDE00BD01032E39E076956795579547953A955D
:100FEE00D1F7302D042315230115110509F051C039
:100FFE00892B8A2B8B2BA1F4D60116966D917D91A0
:10100E008D919C9119976115710581059105B9F422
:10101E0040E050E0BA018D819E810E94171009C0F8
:10102E00F60144895589668977898D819E810E9452
:10103E001710611571058105910509F44FC16130D5
:10104E0071058105910529F482E0D6011F968C93D6
:10105E004CC16F3FBFEF7B078B079B0721F481E0ED
:10106E00F601878742C1D60154966D937D938D9379
:10107E009C93579716962D913D914D915C91199792
:10108E00232B242B252B29F4F60166837783808767
:10109E00918729813A81D9015C964D915D916D912F
:1010AE007C915F97F601808D918DA28DB38D48173F
:1010BE0059076A077B0751F4C9010E94AC218823A6
:1010CE0029F081E0D6011F968C930FC1E981FA8138
:1010DE00FC83EB83D60154964D915D916D917C917D
:1010EE005797CF010E94A9296115710581059105B8
:1010FE0021F482E0F6018787F8C09B01AC01200F36
:10110E00311F411D511D2F83388749875A8715017D
:10111E00232C332426942114310409F450C0AB81BE
:10112E00BC811A968D919C911B979801220D331DAF
:10113E008217930718F41C01201A310A71010F81CE
:10114E00188529853A85662DA201EB81FC81818166
:10115E000E94B71D882329F081E0D6011F968C933B
:10116E00C4C009811A81F801848D958DA68DB78D25
:10117E002F81388549855A85821B930BA40BB50B9D
:10118E00A10160E070E084179507A607B70798F4F1
:10119E00982F8827990F662DA201480F591F611DA0
:1011AE0097FD6A9520E032E0C801C0960E94BD2BE3
:1011BE00D80114961C92322C2224330C5EC0F601F8
:1011CE00408951896289738982859385A485B58505
:1011DE00481759076A077B07A8F08B819C810E94EC
:1011EE00AC21882329F081E0D6011F968C937DC017
:1011FE00E981FA812F81388549855A85248F358F6B
:10120E00468F578F8F819885A985BA85F601808F75
:10121E00918FA28FB38FD60150968D919C9151973D
:10122E00917020E032E01901281A390AA214B30491
:10123E0008F41501F601408D518D628D738D8981F3
:10124E009A810E940B28882329F081E0D6011F96EF
:10125E008C934BC0E981FA81F096D60150968D9110
:10126E009C91519791709101662DA2018E0F9F1F37
:10127E000E94BD2BE981FA817482A218B308F40191
:10128E0080819181820D931D91838083420C531C2A
:10129E00611C37FC6A94F60180899189A289B38911
:1012AE00820D931DA11DB11D808B918BA28BB38BD3
:1012BE004285538564857585481759076A077B07EC
:1012CE0010F4AC01BD01D6011A964D935D936D934A
:1012DE007C931D97A114B10409F064CEF6018685A6
:1012EE008064868780E001C087E02A960FB6F89466
:1012FE00DEBF0FBECDBFDF91CF911F910F91FF903B
:10130E00EF90DF90CF90BF90AF909F908F907F9097
:0C131E006F905F904F903F902F900895CB
:10132A003F924F925F926F927F928F929F92AF926B
:10133A00BF92CF92DF92EF92FF920F931F93CF93B8
:10134A00DF93CDB7DEB7AF970FB6F894DEBF0FBE07
:10135A00CDBF4BA75CA76DA7009709F432C1122F26
:10136A009FA78EA7822F8F73382E482FBE01675DE5
:10137A007F4FCE018B960E94820181111DC189A5E2
:10138A009AA5EEA5FFA5918380839A8389834BA5AD
:10139A005CA56DA5CE0101960E94620B811113C155
:1013AA0088A588230CF018C112C1843009F03DC108
:1013BA00CE0101960E940C22F32DF8603F2E88235D
:1013CA0039F0FAC012FD59C18D81817109F057C1F6
:1013DA0033FE5FC0EB8DFC8D1686178691E2908BEB
:1013EA008AE5818BEB8DFC8D168A178A908F818F07
:1013FA00AB8CBC8C09A51AA5A50160E8C8010E949E
:10140A0039272B013C0180E2F50183876B8D7C8DA6
:10141A0020E030E0A901C8010E94A92CEB8DFC8DC7
:10142A00148E158E168E178EE9A5FAA581E084838F
:10143A00411451046104710449F1848C958CA68C81
:10144A00B78C00E010E09801B301A201CE01019629
:10145A000E94221D8111B0C0B501A40189A59AA5D7
:10146A000E940B28E9A5FAA591E0491A51086108DA
:10147A0071084486558666867786882339F09CC02B
:10148A0011FF02C080FDFDC013FF03C0E32DE0641D
:10149A003E2EE9A5FAA5848D958DA68DB78DEEA56C
:1014AA00FFA5848F958FA68FB78F8B8D9C8D91A367
:1014BA0080A30B8D1C8DA9A4BAA4A80160E8C5015C
:1014CA000E9439272B013C01EEA5FFA5668377838D
:1014DA0080879187045E1F4FB80180E80E94A52685
:1014EA006B017C01EEA5FFA56287738784879587C8
:1014FA00F50186819781EEA5FFA5938382833686BF
:10150A001786108E118E128E138E108A118A128AE5
:10151A00138A35FE87C0C114D104E104F10409F429
:10152A0081C0C08AD18AE28AF38AF50182849384CF
:10153A00A12CB12C072E79E0880C991CAA1CBB1C83
:10154A007A95D1F7702D8C149D04AE04BF0408F06F
:10155A0056C0B301A2018EA59FA50E9434172B0184
:10156A003C01623071058105910508F07FC06DC0AC
:10157A00B301A20189A59AA50E94A929611571053D
:10158A008105910509F44CC0970186010F2EF9E0F7
:10159A003695279517950795FA95D1F7F02DDC0121
:1015AA00CB01800F911FA21FB31FEEA5FFA5808F4D
:1015BA00918FA28FB38F36C0EEA5FFA5118210823C
:1015CA0064C089E062C0212F2C7159F0EECE212F20
:1015DA002C7151F586E005C0812F8C7109F0F2CE8D
:1015EA0028C08111E9CF65CF8FEF9FEFDC01EEA50F
:1015FA00FFA5848B958BA68BB78B81E0DDCFEEA5FB
:10160A00FFA5448A558A668A778AD701C6019170EE
:10161A00AA27BB27892B8A2B8B2B09F0A9CF02C0BB
:10162A0082E0CACF80E031C086E0F32DF8603F2E19
:10163A00D8CF8D8184FD27C023CFEEA5FFA5448A8C
:10164A00558A668A778A82E0B7CF6F3F7F4F8F4F7E
:10165A009F4F51F2F2CFC818D908EA08FB088C1438
:10166A009D04AE04BF0408F474CFC9CF8FEF4816A7
:10167A0058066806780679F7B7CF88E09DCF87E0E5
:10168A009BCF87E099CF84E097CFAF960FB6F894B7
:10169A00DEBF0FBECDBFDF91CF911F910F91FF909B
:1016AA00EF90DF90CF90BF90AF909F908F907F90F8
:0A16BA006F905F904F903F900895ED
:1016C4002F923F924F925F926F927F928F929F924E
:1016D400AF92BF92CF92DF92EF92FF920F931F933C
:1016E400CF93DF93CDB7DEB72F970FB6F894DEBF55
:1016F4000FBECDBF1A01462EDC010D90BC91A02D6A
:10170400BF83AE839F878E8704C0BFEF2B1A3B0A2B
:101714004B0AF101849147FC80818F32B1F38C35FF
:10172400A1F32E853F85D90116961D921D921D9217
:101734001C921997F101849147FC8081803258F4FE
:1017440080E897968C9340E050E0BA01C9010E946A
:101754000F19D82E3AC1EE85FF857C96FD83EC8364
:10176400512C912CF8E0FA871B862BE02C871D86E0
:10177400AC81BD81CD01A0E889839A83AB83EE81DE
:10178400FF81F096F987E8874BE050E060E270E073
:101794008C819D810E94E32C842C3101A52CB92CD1
:1017A400E12CF12C6894CC24C3F8D12C04C09FEF15
:1017B400691A790A890AAFEFEA1AFA0AF30114914D
:1017C40087FC1081113208F447C01F3211F01C3518
:1017D400B1F4A42DC1018E0D9F1DA11DF7FCAA9586
:1017E40005C0FFEFEF1AFF0A0196A11DFC01249129
:1017F400A7FD20812F32A9F32C3599F32DC01E3279
:1018040009F4DAC0AC14BD0408F0B2C011235CF4CE
:101814001F77812F90E0A0E0885B9D4FAF4FFC01C4
:101824001491A7FD1081412F50E061ED72E080E03A
:101834000E94412C672B682B09F09FC08FE9810F10
:101844008A3108F41052EC81FD81EA0DFB1D1083EE
:10185400C50101965C01ABCFAB2809F493C0EE85BA
:10186400FF85848D853E11F425E0248F2E0C3F1CCA
:10187400411CF7FC4A94113240F0F101849147FC79
:101884008081813230F0812C07C06894882482F8EA
:1018940003C06894882482F8AE85BF8597968C929D
:1018A4009797ED90FC90119740E050E0BA01CD017C
:1018B4000E940F19D82E811178C0AE85BF85569627
:1018C4004D915D916D917C915997C7010E940B28B0
:1018D400D82E81116CC0AE85BF855A96ED91FC91CE
:1018E4005B9780818823F1F0C3848C2D8F731496C9
:1018F4008C93838583FD0BC0BF0180E80BE010E06F
:1019040029813A814B810E947F29892BA1F0652D81
:10191400792D8E859F850E943516D82E882369F2ED
:10192400B82C46C0B82C8B2D847089F50F2EF5E0A9
:10193400DF2EF02D4AC0EE85FF85882D847009F0D6
:1019440044C0C4FE28C04685578551702885398512
:10195400420F531F60E88E819F810E943927AE8514
:10196400BF8516966D937D938D939C9319970CCF99
:101974000F2EF6E0DF2EF02D28C00F2EF6E0DF2E1E
:10198400F02D23C00F2EF6E0DF2EF02D1EC068943C
:10199400DD24D2F81AC00F2EF5E0DF2EF02D15C08D
:1019A4000F2EF6E0DF2EF02D10C0B82C01C0B82C9D
:1019B400B4E0DB120AC0B7CFEBE0CE16D10481F35A
:1019C400AA84BB84CC84DD84F2CE8D2D2F960FB6F1
:1019D400F894DEBF0FBECDBFDF91CF911F910F9161
:1019E400FF90EF90DF90CF90BF90AF909F908F903B
:0E19F4007F906F905F904F903F902F900895DE
:101A02002F923F924F925F926F927F928F929F920C
:101A1200AF92BF92CF92DF92EF92FF920F931F93FA
:101A2200CF93DF93CDB7DEB7CF56D1400FB6F89440
:101A3200DEBF0FBECDBF862E472E582E722EC45942
:101A4200DE4F3883CC56D140C359DE4F4883CD5642
:101A5200D1400E94052D21E04DEE50E060E080E390
:101A620093E00E949509811109C0AE014F5F5F4F5B
:101A72001A018A01C12CD12C912C28C00E94352D2B
:101A820080E031C1B70180E825EF30E040E00E94FC
:101A920024299601220F331F22953295307F322757
:101AA200207F3227E1E0F0E0EC0FFD1F2E0F3F1FF9
:101AB200820F931FFC0110829394FFEFCF1ADF0A6B
:101AC200005E1F4F2AE0921609F408C1780140E334
:101AD20053E060E270E0C8010E94C722892B91F6B0
:101AE20080E393E00E94C22A992009F4A7C0510121
:101AF200C12CD12CC559DE4F1882CB56D140C259C8
:101B0200DE4F39822882CE56D140372C70C03A330C
:101B120009F502C000E010E0F701EE0FFF1FE295A9
:101B2200F295F07FFE27E07FFE2741E050E04C0F68
:101B32005D1FE40FF51FE00FF11F1082C301A0E843
:101B4200282D342D452DBC018A2F0E94812A892BF4
:101B520089F50AC02F5F022F10E0FC01E00FF11F90
:101B620030813111D4CF3BC0C359DE4F5881CD569D
:101B7200D1405F93C459DE4F8881CC56D1408F93B8
:101B82003F925F924F928F9280E091E0A0E0AF93FC
:101B92009F938F937F926F920E942E2C0FB6F89490
:101BA200DEBF0FBECDBF51E0C559DE4F5883CB56C5
:101BB200D14015C0EE0CFF1CEE0CFF1CEE0CFF1CFE
:101BC200EE0CFF1CEE0CFF1C81E090E08C0F9D1FC1
:101BD200E80EF91EF701E00FF11F9AE39083AFEFD1
:101BE200CA1ADA0AE0E2AE0EB11CC914D0F47601C8
:101BF2003501F5018081882391F38A3309F48ACF74
:101C020020E0C601880F991F82959295907F9827B0
:101C1200807F982741E050E04C0F5D1F840F951F95
:101C220099CFC259DE4F28803980CE56D140C5594E
:101C3200DE4F5881CB56D140511104C00E94352D40
:101C420080E051C02AE04DEE50E060E080E393E096
:101C52000E949509882321F00E94352D80E043C01F
:101C6200F12C0F2EF6E0CF2EF1E0DF2EF0E0EF2E7A
:101C7200F02D5E018DEBA81A8EEFB80A350190E8BF
:101C8200892EC101A0E8AF939F932F92EF92DF922A
:101C9200CF92BF92AF920E942E2C882DB3010E9448
:101CA200052C8E010F5B1E4F9C01682DA30180E362
:101CB20093E00E948F07F394A0E22A0E311C0FB624
:101CC200F894DEBF0FBECDBF9F10DBCF80E393E061
:101CD2000E94C22A0E94352D81E005C080E393E074
:101CE2000E94C22A04CFC159DE4F0FB6F894DEBF5C
:101CF2000FBECDBFDF91CF911F910F91FF90EF905B
:101D0200DF90CF90BF90AF909F908F907F906F9019
:0A1D12005F904F903F902F900895CE
:101D1C00CF93DF93CDB7DEB7C655D1090FB6F89484
:101D2C00DEBF0FBECDBF0E94722C78940E94F629A4
:101D3C000E94F52C0E94FD2C0E94EE2B0E94FE2A84
:101D4C000E942F2D0E943F2D0E94322D81E00E9477
:101D5C008B2B65E871E080E00E94552B0E94052DCD
:101D6C0064E670E080E090E00E94A22A21E044E961
:101D7C0051E060E080E091E00E947A24182F0E94EC
:101D8C00352D1123D9F081E00E948B2B1F921F93CC
:101D9C0085E991E0A0E0AF939F938F938E010F5B49
:101DAC001F4F1F930F930E941B2CB80180E80E94B9
:101DBC00552B0FB6F894DEBF0FBECDBF0E94CA27BD
:101DCC000F2EF4EBCF2EF1E0DF2EF0E0EF2EF02D06
:101DDC008E010F5E1F4F380130E8832E2E0181E2F9
:101DEC00480E511C5E0191E3A90EB11CC501A0E87F
:101DFC0064968DAF9EAFAFAF6497C201A0E86796B3
:101E0C008DAF9EAFAFAF679781E00E948B2B61EADD
:101E1C0071E080E00E94552B80EC0E948B2B6BEACA
:101E2C0071E080E00E94552BBE016F5F7F4F86E210
:101E3C000E943D2A811113C0CE0101960E94D12926
:101E4C0081110DC099812A813B814C81892F822778
:101E5C00832784275D81851302C0933939F464E6A6
:101E6C0070E080E090E00E94A22ADECF1F924F9398
:101E7C001F923F931F922F931F929F93EF92DF928B
:101E8C00CF921F930F930E941B2C81E00E948B2BEF
:101E9C0065EC71E080E00E94552B80EC0E948B2B4E
:101EAC00882DB3010E94552B6CED75E080E090E01D
:101EBC000E94A22AA201882DB3010E94861C0FB693
:101ECC00F894DEBF0FBECDBF882309F442C081E079
:101EDC000E948B2B63ED71E080E00E94552B80EC0F
:101EEC000E948B2B41E064E0C5010E94981F67960D
:101EFC002DAD3EAD4FAD679764966DAD7EAD8FAD9C
:101F0C0064970E94812A892BA9F481E00E948B2B73
:101F1C006EED71E080E00E94552B0E94E02A68EE85
:101F2C0073E080E090E00E94A22A882DB3010E9409
:101F3C00FA1974C081E00E948B2B6DEE71E080E089
:101F4C000E94552B60ED77E080E090E00E94A22A81
:101F5C0065C081E00E948B2B69EF71E080E00E94EC
:101F6C00552B80EC0E948B2B66E072E080E00E9487
:101F7C00552B68EE73E080E090E00E94A22A80EC82
:101F8C000E948B2B41E064E0C5010E94981F22E166
:101F9C0032E040E064966DAD7EAD8FAD64970E94EB
:101FAC00812A892B69F581E00E948B2B67E172E015
:101FBC0080E00E94552B80EC0E948B2B40E064E06B
:101FCC00C5010E94981F64962DAD3EAD4FAD649730
:101FDC00882DB3010E94E120882349F081E00E9402
:101FEC008B2B63E272E080E00E94552B11C081E0E4
:101FFC000E948B2B6EE272E080E00E94552B08C091
:10200C0081E00E948B2B6AE372E080E00E94552BEA
:10201C0060ED77E080E090E00E94A22A0E94CA273F
:02202C00F3CEF1
:10202E004F925F926F927F928F929F92AF92BF92DA
:10203E00CF92DF92EF92FF920F931F93CF93DF9386
:10204E008C012A013B01FC01C081D1814115510552
:10205E0061057105C9F48C849D84AE84BF8481149E
:10206E009104A104B10409F42DC18C899D89AE8916
:10207E00BF8988169906AA06BB0608F427C1812CCB
:10208E00912C5401839422C10E9434176230710541
:10209E008105910508F4D8C06F3FFFEF7F078F07CA
:1020AE009F0709F4D6C0CC88DD88EE88FF886C15B2
:1020BE007D058E059F0508F0F4C012C17301620103
:1020CE002FEFC21AD20AE20AF20A8C899D89AE89D2
:1020DE00BF89C816D906EA06FB0628F0C12CD12CFA
:1020EE0076016894C1F8B701A601C8010E943417A1
:1020FE00613071058105910509F4AFC06F3FEFEFB7
:10210E007E078E079E0709F4ADC0672B682B692BDF
:10211E00B1F08C849D84AE84BF84F2E08F1691045E
:10212E00A104B10408F4C8C08C899D89AE89BF8909
:10213E0088169906AA06BB0608F0C1C007C0C114CE
:10214E00D104E104F104D1F553014201750164019A
:10215E002FEFC21AD20AE20AF20A8C899D89AE8941
:10216E00BF89C816D906EA06FB0660F082E088161B
:10217E009104A104B10408F479C0C12CD12C7601CC
:10218E006894C1F8B701A601C8010E943417611501
:10219E0071058105910591F06130710581059105FB
:1021AE0009F468C06F3F7F4F8F4F9F4F09F467C090
:1021BE00C814D904EA04FB0459F665C00FEF1FEFEB
:1021CE009801B701A601CE010E941214811135C0EB
:1021DE00411451046104710449F097018601B30161
:1021EE00A201CE010E941214811127C0CC86DD8679
:1021FE00EE86FF8688899989AA89BB890097A105F1
:10220E00B10509F444C04C895D896E897F894250BD
:10221E00510961097109481759076A077B07D0F1FF
:10222E000197A109B109888B998BAA8BBB8B8D81E4
:10223E0081608D83C701B60153C0813071F161E0B9
:10224E0070E080E090E04CC061E070E080E090E0F3
:10225E0047C06FEF7FEFCB0143C061E070E080E0DD
:10226E0090E03EC06FEF7FEFCB013AC060E070E0D0
:10227E00CB0136C061E070E080E090E031C06FEFDE
:10228E007FEFCB012DC060E070E0CB0129C0C7010C
:10229E00B60126C0C701B60123C06FEF7FEFCB0199
:1022AE001FC0688979898A899B89611571058105A5
:1022BE00910509F003CF14C05301420147CF5301DA
:1022CE00420144CF812C912C5401839468897989E1
:1022DE008A899B89611571058105910509F036CFB3
:1022EE00DF91CF911F910F91FF90EF90DF90CF90E4
:1022FE00BF90AF909F908F907F906F905F904F9018
:02230E00089530
:102310002F923F924F925F926F927F928F929F92F5
:10232000AF92BF92CF92DF92EF92FF920F931F93E3
:10233000CF93DF9300D000D000D0CDB7DEB77C01C3
:102340003B015A014901F901118210828D83FE82FD
:10235000BE016F5F7F4F0E945229811124C1F70196
:102360008785811120C1868580FF1AC1828593856A
:10237000A485B5854089518962897389841B950B31
:10238000A60BB70BA50160E070E084179507A607C0
:10239000B70708F45C01A114B10409F403C1F70103
:1023A00080899189A289B389AC01BD0151706627EA
:1023B0007727452B462B472B09F0A9C0E981FA81E5
:1023C0000285138501501109AC01BD01032E39E0CE
:1023D00076956795579547953A95D1F7302D042313
:1023E00015230115110559F5892B8A2B8B2B31F4F7
:1023F000F701668177818085918509C0F70144895D
:102400005589668977898D819E810E943417623053
:1024100071058105910520F482E0F7018787C3C02B
:102420006F3FFFEF7F078F079F0721F481E0F701E0
:102430008787B9C0F701648B758B868B978B8981F1
:102440009A819C838B83F7014489558966897789B2
:102450000E94A929611571058105910521F482E089
:10246000F7018787A0C01B012C01200E311E411CE3
:10247000511C6501CD2CDD24C694C114D10409F48E
:1024800041C0EB81FC818285938598012C0D3D1D17
:102490008217930718F46C01C01AD10A8601A201B1
:1024A0009101B301EB81FC8181810E946B22882321
:1024B00021F081E0F701878776C0E981FA81848184
:1024C0008823E1F0848D958DA68DB78D82199309AF
:1024D000A409B509A60160E070E084179507A60776
:1024E000B70760F4F096AF0160E8982F8827990F3E
:1024F00020E032E0860D971D0E94BD2BDC2CCC2401
:10250000DD0C30C0F701208E318E428E538EF701E4
:1025100080899189917020E032E06901C81AD90A56
:10252000AC14BD0408F46501F701408D518D628D36
:10253000738D89819A810E940B28882321F081E084
:10254000F701878730C049815A81405D5F4FF701AD
:10255000808991899170480F591F60E89601C301E5
:102560000E94BD2BAC18BD08F401808191818C0DB7
:102570009D1D918380836C0C7D1CF701808991895E
:10258000A289B3898C0D9D1DA11DB11D808B918BDE
:10259000A28BB38BA114B10409F001CF80E003C07A
:1025A00087E001C080E026960FB6F894DEBF0FBE2C
:1025B000CDBFDF91CF911F910F91FF90EF90DF90F2
:1025C000CF90BF90AF909F908F907F906F905F90D3
:0825D0004F903F902F900895F9
:1025D800EF92FF920F931F93CF93DF93EC011C822E
:1025E8008FEF9FEFDC018C8F9D8FAE8FBF8FCE0159
:1025F8000E940B288111B4C0CE01825D9D4FA0E8D6
:102608009C014A2F2F5F3F4F4F4FF901E49047FD40
:10261800E080F12CFE2CEE24FC018491A7FD808142
:10262800E82A88A98B3E21F0885E823008F090C0A5
:1026380025E5E2162AEAF20609F09EC0BE016E57A9
:102648007F4F80E808E010E028EC32E040E00E948C
:102658007F29892B09F0AFC086C0442309F478C0CC
:10266800842F90E09C012150310982239323892BE8
:1026780009F06EC09E01225C3F4F40E8A42FC901BB
:102688000196A11DFC018491A7FD808190E0982FFF
:102698008827F901249147FD2081822B892B09F491
:1026A80057C0FE01E05CFF4F808190E001970297E0
:1026B80008F04EC09E012F5B3F4F40E8A42FC90190
:1026C8000196A11DFC018491A7FD808190E0982FBF
:1026D8008827F901249147FD2081822B892BC1F19C
:1026E8009E012D5B3F4F40E8A42FC9010196A11D13
:1026F800FC018491A7FD808190E0982F8827F9013B
:10270800249147FD2081822B8038910558F4BE0121
:10271800605B7F4F80E80E94A526611571058140A6
:102728009105B0F09E012A5B3F4F40E8A42FC901F4
:102738000196A11DFC018491A7FD808190E0982F4E
:102748008827F901249147FD2081822B892B71F478
:1027580085E5E8168AEAF80661F083E090E057C05C
:1027680084E090E054C080E090E051C080E090E0C8
:102778004EC082E090E04BC09E01255C3F4F40E890
:10278800A42FC9010196A11DFC018491A7FD808198
:1027980090E0982F8827F901249147FD2081822B0A
:1027A8004DAD9C012150310928233923232B11F1E8
:1027B80083E090E02CC09E01255C3F4F40E8A42FA9
:1027C800C9010196A11DFC018491A7FD808190E0BB
:1027D800982F8827F901249147FD2081822B4DAD40
:1027E8009C012150310928233923232B51F082E001
:1027F80090E00DC08115924009F42FCF83E090E05E
:1028080006C08115924009F428CF82E090E0DF915C
:0C281800CF911F910F91FF90EF90089559
:102824002F923F924F925F926F927F928F929F92DC
:10283400AF92BF92CF92DF92EF92FF920F931F93CA
:10284400CF93DF93423051056105710508F4D3C07D
:10285400FC01C488D588E688F7884C155D056E05AB
:102864007F0508F0CAC0280139016A017B01EC0127
:102874008081823009F464C0833009F482C08130DD
:1028840009F0BDC05A01B694A794A40EB51EC501A3
:10289400892F9927869544A155A166A177A1480F50
:1028A400591F611D711DCF010E940B28182F811122
:1028B400C6C01E01F0E32F0E311C45012FEF821A12
:1028C400920A31E0B322F101EA0DFB1DC0FE1EC0E5
:1028D4008081282F2F7030E1439EC0011124822B68
:1028E400808381E08C834CA15DA16EA17FA1C40192
:1028F400892F99278695480F591F611D711DCE0197
:102904000E940B28882309F480C07BC0408281E0A8
:102914008C834CA15DA16EA17FA1C401892F99274D
:102924008695480F591F611D711DCE010E940B2809
:10293400882309F478C067C0408281E08C837FC01B
:10294400452F562F672F772784A195A1A6A1B7A15C
:10295400480F591F6A1F7B1FCF010E940B28182F95
:1029640081116DC0FE01F096CC0CDD1CE894C0F81A
:1029740081E0D822EC0DFD1D4082518281E08C83E0
:102984005EC084A195A1A6A1B7A1689416F8769516
:102994006795579547951694D1F7480F591F6A1FA5
:1029A4007B1FCF010E940B28182F811148C0EFE034
:1029B4007E22CE01C096CC0CDD1CCC0CDD1CFCEFC1
:1029C400CF22F1E0DF22C80ED91EB60180E80E94B2
:1029D400A526DC01CB0188279927AA27B07F482A9E
:1029E400592A6A2A7B2AF6014082518262827382C2
:1029F40081E08C8324C012E022C012E020C012E0E7
:102A04001EC0182F1CC0182F1AC0F1E09F22F1011C
:102A1400E80DF91D689413F87694679457944794D5
:102A24001694D1F789CF21E09222F101E80DF91D26
:102A34009081907F852D8F70492E482A7DCF812FDC
:102A4400DF91CF911F910F91FF90EF90DF90CF9086
:102A5400BF90AF909F908F907F906F905F904F90BA
:062A64003F902F90089541
:102A6A008F929F92AF92BF92CF92DF92EF92FF9294
:102A7A000F931F93CF93DF9300D000D0CDB7DEB76B
:102A8A008111D0C01AE08FEF0E94382D1150D9F76A
:102A9A0040E050E0BA0180E00E940720813009F04E
:102AAA00C9C08090640390906503A0906603B090BB
:102ABA0067034AEA51E060E070E088E00E9407207C
:102ACA00813009F05BC0CE0101966C017E0195E070
:102ADA00E90EF11C86018FEF0E94382DF8018193CF
:102AEA008F01EE16FF06B9F78B81813009F0A2C07B
:102AFA008C818A3A09F09EC08091640390916503A3
:102B0A00A0916603B091670388199909AA09BB09BC
:102B1A00883E9340A105B10548F440E050E060E0EA
:102B2A0070E489EA0E9407208111E6CF809164034C
:102B3A0090916503A0916603B0916703881999097A
:102B4A00AA09BB09883E9340A105B10508F072C0E5
:102B5A0040E050E0BA018AE30E94072081116AC06E
:102B6A008FEF0E94382DF60181936F01EE15FF0554
:102B7A00B9F7898186FD58C084E057C040E050E02B
:102B8A00BA0189EA0E940720823018F001E011E0B8
:102B9A0002C002E019EA8091640390916503A09152
:102BAA006603B091670388199909AA09BB09883E87
:102BBA009340A105B10540F440E050E0BA01812FED
:102BCA000E9407208111E7CF8091640390916503E9
:102BDA00A0916603B091670388199909AA09BB09EC
:102BEA00883E9340A105B10528F540E052E060E037
:102BFA0070E080E10E94072081111CC000936C03E1
:102C0A000E94292D002331F080916D038E7F8093DD
:102C1A006D0305C080916D03816080936D0380917F
:102C2A006D030DC081E00BC08CE080936C030E94A1
:102C3A00292DEACF10926C030E94292DEBCF0F9019
:102C4A000F900F900F90DF91CF911F910F91FF90EE
:102C5A00EF90DF90CF90BF90AF909F908F900895A4
:102C6A004F925F926F927F92AF92BF92CF92DF9212
:102C7A00EF92FF920F931F93CF93DF938B01FC0187
:102C8A00C684D784E088F188F0E2CF0ED11CE11C1B
:102C9A00F11CC114D10420E2E206F10438F0FC016F
:102CAA00168A178A108E118E84E0CAC0FC014689E2
:102CBA005789608D718D411551056105710509F4BA
:102CCA00B2C0EC01A080B180D701C6019170AA27D9
:102CDA00BB27892B8A2B8B2B09F096C04F5F5F4F3E
:102CEA006F4F7F4F468B578B608F718F4289538905
:102CFA00648975894115510561057105D9F4F50194
:102D0A0080859185A0E0B0E0B701A601689414F827
:102D1A0076956795579547951694D1F748175907A9
:102D2A006A077B0708F470C01E8A1F8A188E198EDC
:102D3A0084E086C0F501828593850197A0E0B0E022
:102D4A0026013701032E39E0769467945794479405
:102D5A003A95D1F7302D84219521A621B721892BC7
:102D6A008A2B8B2B09F050C0CE010E9434172B01FD
:102D7A003C01623071058105910508F456C06F3F28
:102D8A007F4F8F4F9F4F09F452C0F501848995896F
:102D9A00A689B789481659066A067B0640F1012BAF
:102DAA0031F41E8A1F8A188E198E84E049C04A8916
:102DBA005B896C897D89CE010E9417102B013C0129
:102DCA006115710581059105A1F1613071058105D2
:102DDA00910589F16F3F2FEF72078207920769F118
:102DEA00AB01BC01C5010E94271F811128C04A8A74
:102DFA005B8A6C8A7D8AB301A201C5010E94A92956
:102E0A006E8B7F8B888F998FCE86DF86E88AF98AC8
:102E1A0080E3A80EB11CE1E0DE22CA0CDB1CDB8ECB
:102E2A00CA8E80E00DC084E00BC082E009C081E058
:102E3A0007C087E005C082E003C081E001C081E0ED
:102E4A00DF91CF911F910F91FF90EF90DF90CF907C
:0E2E5A00BF90AF907F906F905F904F90089563
:102E6800AF92BF92CF92DF92EF92FF920F931F9390
:102E7800CF93DF93423051056105710508F4B5C061
:102E8800FC01C081D1818C899D89AE89BF89481791
:102E980059076A077B0708F0ADC06A017B01888182
:102EA800823009F44DC0833009F47AC0813009F0CA
:102EB800A6C08A0116950795040F151FC801892F0A
:102EC800992786954CA15DA16EA17FA1480F591F36
:102ED800611D711DCE010E940B28811195C05801FA
:102EE800FFEFAF1ABF0A1170FE01E00FF11F10A922
:102EF800C501892F992786954CA15DA16EA17FA157
:102F0800480F591F611D711DCE010E940B288111A8
:102F18007FC081E0B822CA0DDB1D88A9612F70E04F
:102F2800782BC0FE09C0729562956F7067277F7015
:102F3800672780E090E077C07F7080E090E073C002
:102F4800452F562F672F77278CA19DA1AEA1BFA132
:102F5800480F591F6A1F7B1FCE010E940B28811141
:102F68005BC0CE01C096A601440F551F4E7F51701D
:102F7800480F591FCA01A0E89C014A2F2F5F3F4FF5
:102F88004F4FF901649147FD608170E0762F662705
:102F9800FC018491A7FD8081682B80E090E043C00C
:102FA8008CA19DA1AEA1BFA1689416F876956795EE
:102FB800579547951694D1F7480F591F6A1F7B1FDD
:102FC800CE010E940B2881112BC0E096A601440F68
:102FD800551F440F551F4C7F5170C40FD51FBE019C
:102FE80080E80E94A5269F701EC061E070E080E026
:102FF80090E019C061E070E080E090E014C061E00A
:1030080070E080E090E00FC06FEF7FEFCB010BC066
:103018006FEF7FEFCB0107C06FEF7FEFCB0103C0EE
:103028006FEF7FEFCB01DF91CF911F910F91FF9051
:0C303800EF90DF90CF90BF90AF90089514
:10304400AFE0B0E0E8E2F8E10C94392B1C016B012D
:103054005A8349832B83FB018281938184809580E9
:10306400E080F180A680B78097FD03C0E894E1F882
:1030740002C081E090E0E981FA8140805180628061
:1030840073809701207133273D832C838401E4FEF0
:1030940007C0411451046104710411F00250110974
:1030A400F701E870FF27FF83EE83E3FE02C00150BF
:1030B4001109F6010084F185E02D3197FF87EE8731
:1030C400EA0DFB1D10829C01201B310B39872887D8
:1030D400C701827099279B878A87EB818E2FEE0F19
:1030E400990B9C01215431093D872C872E853F85FE
:1030F4002230310530F48C819D81892B09F041C047
:103104005BC0411451046104710459F18E859F859B
:1031140001979F878E87C2018F7099278A30910506
:1031240014F4C09602C0895A9F4FEC85FD857A97A6
:1031340048F49C012062215631092A31310510F4EA
:103144000E94EC2CEE85FF85EA0DFB1D8083015067
:10315400110984E076946794579447948A95D1F73B
:10316400C5CF88859985800F911F1816190674F2AA
:10317400101611060CF0BFCFEA85FB85EF2B31F654
:10318400BACFE981FA8180819181A281B381892BAF
:103194008A2B8B2B89F0EE85FF85EA0DFB1D319779
:1031A4002B8120838E859F8502979F878E87FC01C4
:1031B400EA0DFB1D80E38083EE81FF81EF2B59F044
:1031C4002E853F85215031093F872E87F901EA0D6D
:1031D400FB1D80E28083F601208531852150310971
:1031E4008E859F85281B390B8A0D9B1DAC0160E8D9
:1031F4008401C1010E945A269C01F10180819181C0
:1032040090FF06C0F60182819381821793070CF424
:0A321400C9012F96E2E10C94702B23
:10321E004F925F926F927F928F929F92AF92BF92D8
:10322E00CF92DF92EF92FF920F931F93CF93DF9384
:10323E00EC016A017B014115510580E268077105B9
:10324E0008F0B3C0DB01CA018F719927AA27BB27EB
:10325E00892B8A2B8B2B09F0AAC0088119814E87E6
:10326E005F87688B798B8E809F80A884B984811448
:10327E009104A104B10461F5F8018081833040F01E
:10328E0080A591A5A2A5B3A50097A105B105F1F45E
:10329E00F80180859185A0E0B0E0B701A6016894A1
:1032AE0014F876956795579547951694D1F7481764
:1032BE0059076A077B0708F07CC080A591A5A2A5D7
:1032CE00B3A58E8B9F8BA88FB98F46C04C015D0125
:1032DE00F80142845384612C712C032E39E0440C86
:1032EE00551C661C771C3A95D1F7302DC414D504A5
:1032FE00E604F70440F1B501A401CE010E94341793
:10330E004B015C016F3F7F4F8F4F9F4F09F453C0AE
:10331E0082E088169104A104B10408F44EC0F801AD
:10332E0084899589A689B78988169906AA06BB0647
:10333E0008F045C0C418D508E608F708C414D5042B
:10334E00E604F704C0F6B501A401C8010E94A9293C
:10335E006E8B7F8B888F998F8A8A9B8AAC8ABD8A67
:10336E008E899F89A88DB98D0097A105B10549F168
:10337E00B701A601032E39E07695679557954795C7
:10338E003A95D1F7302D840F951FA61FB71F8E8B40
:10339E009F8BA88FB98F005D1F4FF1E0DF22C00E0B
:1033AE00D11EDB8ECA8E80E00DC082E00BC082E0A3
:1033BE0009C082E007C081E005C082E003C082E060
:1033CE0001C082E0DF91CF911F910F91FF90EF909E
:1033DE00DF90CF90BF90AF909F908F907F906F9027
:0633EE005F904F9008956E
:1033F4002F923F924F926F927F928F92CF92DF9251
:10340400EF92FF921F93CF93DF93CDB7DEB7A397CD
:103414000FB6F894DEBF0FBECDBF69A37AA38BA30A
:103424006E0181E1C80ED11CCE0101967C013601EA
:1034340090E8892E170180E8482E81E00E948B2BAA
:103444006BE071E080E00E94552B80EC0E948B2B96
:103454006AE171E080E00E94552B0E94D223182F6C
:1034640062E370E080E090E00E94A22A1123A9F3B5
:10347400113309F581E00E948B2B63E271E080E057
:103484000E94552B0E94E02A68E873E180E090E0F6
:103494000E94A22A81E00E948B2B6DE271E080E001
:1034A4000E94552B0E94FE2A68EE73E080E090E0B3
:1034B4000E94A22A6CC0123309F052C081E00E941B
:1034C4008B2B69E371E080E00E94552B80EC0E9415
:1034D4008B2B40E064E0C6010E94981F81E00E94AB
:1034E4008B2B62E471E080E00E94552B80EC0E94FB
:1034F4008B2B40E064E0C7010E94981F442D91018A
:10350400882DB3010E94812A892B49F081E00E9411
:103514008B2B6FE471E080E00E94552B1AC0482D7C
:10352400930169A17AA18BA10E94010D882349F01E
:1035340081E00E948B2B6DE571E080E00E94552BA9
:1035440008C081E00E948B2B6AE671E080E00E9453
:10355400552B60ED77E080E090E00E94A22A17C02E
:103564001333A9F481E00E948B2B69E771E080E0BA
:103574000E94552B0E94FE2A68EE73E080E090E0E2
:103584000E94A22A0E94D2238111FCCF05C00E946E
:10359400D2238111FCCF51CFA3960FB6F894DEBF8E
:1035A4000FBECDBFDF91CF911F91FF90EF90DF90C1
:1035B400CF908F907F906F904F903F902F90089571
:1035C4007F928F929F92AF92BF92CF92DF92EF92AF
:1035D400FF920F931F93CF93DF93982EC62FD72F6D
:1035E400A42E790168018CE0981287C069C00F2E5F
:1035F400F0E37F2EF02D0F2EF7E78F2EF02D02C073
:10360400712C812C0C2F1D2FC0E0D0E0F8016191AA
:103614008F0189E00E949C2C2196CA15DB05B0F32A
:10362400692D81E00E949C2CFCE09F1208C08DE073
:103634000E94C22C682F60688DE00E949C2C84E05C
:103644000E94C22C182FCFECD7E0072D016007C0D1
:1036540084E00E94C22C182F219709F464C0802FA3
:103664008123B1F36AC0882D81701823C1E009F465
:10367400C0E08CE0981270C08AE00E94C22C90E0F6
:10368400F60191838083009709F466C08701E80EF0
:10369400F91E89E00E94C22CF80181938F01EE1675
:1036A400FF06B9F759C06CE081E00E949C2C0F2EF4
:1036B400F0E37F2EF02D0F2EF7E78F2EF02DB7CFEE
:1036C40067EF82E00E949C2C6FE784E00E949C2CB0
:1036D40060E88AE00E949C2C60E081E00E949C2CBF
:1036E400B12CA114B10409F082CFDDCF692D81E0A2
:1036F4000E949C2C712C812CA2CF60E882E00E9455
:103704009C2C6FE784E00E949C2C60E88AE00E9475
:103714009C2C60E081E00E949C2CB12CA114B1048B
:1037240009F06ECFE3CF8DE00E94C22C682F6F7733
:103734008DE00E949C2CC1E00FC08DE00E94C22C41
:10374400682F6F778DE00E949C2C86E00E94C22C2B
:103754008B7109F488CFC1E08C2FDF91CF911F9139
:103764000F91FF90EF90DF90CF90BF90AF909F901C
:063774008F907F90089584
:10377A00EF92FF920F931F93CF93DF93CDB7DEB7EC
:10378A0060970FB6F894DEBF0FBECDBF8111A9C0F6
:10379A0080916D0380FDA7C08A016130C1F020F0DD
:1037AA00633009F48AC094C00E943D2D0E94F62815
:1037BA007C01892B19F40E94292D03C0EE24E3947D
:1037CA00F12C11E0EF2809F488C010E086C040E02F
:1037DA0050E0BA0189E00E94072081117BC060E1B4
:1037EA0070E0CE0101960E942624892B09F474C048
:1037FA0089818295869586958370813031F52985F0
:10380A0030E0322F22278A85280F311D88858F7351
:10381A0090E0A0E0B0E0DC01992788270196A11D7D
:10382A00B11D820F931FA11DB11D072E7AE0880FCB
:10383A00991FAA1FBB1F7A95D1F7702DF8018083B3
:10384A009183A283B38310E048C0898582958695C7
:10385A0086958370288590E0F4E02F9F800D911D56
:10386A0011249C012F5F3F4F9F819370892F90E015
:10387A00982F8827990F990F820F931FA0E0B0E025
:10388A003E81432F4F703B85232F221F2227221F61
:10389A00342F320F2A852370220F230F275004C09A
:1038AA00880F991FAA1FBB1F2A95D2F7F801808398
:1038BA009183A283B38310E010C080E890E0A0E077
:1038CA00B0E0FA0180839183A283B38310E005C03C
:1038DA0014E003C011E001C011E00E94292D812FDC
:1038EA0003C084E001C083E060960FB6F894DEBF9F
:1038FA000FBECDBFDF91CF911F910F91FF90EF9037
:02390A0008951E
:10390C005F926F927F928F929F92AF92BF92CF9263
:10391C00DF92EF92FF920F931F93CF93DF93CDB76C
:10392C00DEB7C354D1090FB6F894DEBF0FBECDBFBE
:10393C0024966DAF7EAF8FAF24975A010E94052D50
:10394C0021E04DEE50E060E080E393E00E949509A9
:10395C008823F1F110E056C025EF30E040E0882DCF
:10396C00B3010E9424298E0D9F1DFC0110828981B8
:10397C008823C1F18A3329F080E015C09A3399F479
:10398C0002C0052D192DF701E00FF11F10822496AE
:10399C002DAD3EAD4FAD2497882DB3010E94812AE9
:1039AC00892B01F50AC08F5F082F10E0F701E00F9B
:1039BC00F11F90819111E2CF15C0AE01400F511F44
:1039CC004E5F5F4F60E8C5010E948E2C11E016C05F
:1039DC00CE0101967C01C82EDF2C3C0190E8892E8B
:1039EC00512C912C40E353E060E470E08C2D9D2D24
:1039FC000E94C722892B09F0AFCF10E080E393E03F
:103A0C000E94C22A0E94352D812FCD5BDF4F0FB64D
:103A1C00F894DEBF0FBECDBFDF91CF911F910F91F8
:103A2C00FF90EF90DF90CF90BF90AF909F908F90D2
:083A3C007F906F905F900895E8
:103A44004F925F926F927F92AF92BF92CF92DF922A
:103A5400EF92FF920F931F93CF93DF935C016A0160
:103A64007B01B901A80122E0C216D104E104F104EA
:103A740008F463C0FC01C081D1818C899D89AE8921
:103A8400BF89C816D906EA06FB0608F058C04115D6
:103A940051056105710541F00FEF1FEF9801CE014B
:103AA4000E941214811152C0B701A601C5010E94DF
:103AB40034172B013C01611571058105910509F449
:103AC40040C06130710581059105E9F16F3F7F4F79
:103AD4008F4F9F4FD1F100E010E09801B701A6018C
:103AE400CE010E941214811131C088899989AA8952
:103AF400BB894C895D896E897F896A017B01E2E01B
:103B0400CE1AD108E108F1088C159D05AE05BF0554
:103B140050F40196A11DB11D888B998BAA8BBB8B88
:103B24008D8181608D83730162014416550666069A
:103B3400770608F4B9CF80E009C082E007C082E0CC
:103B440005C080E003C082E001C081E0DF91CF9135
:103B54001F910F91FF90EF90DF90CF90BF90AF90A7
:0A3B64007F906F905F904F900895DE
:103B6E006F927F928F92AF92BF92CF92DF92EF922F
:103B7E00FF920F931F933A01862E5801690181110E
:103B8E0060C0E114F10409F45EC080916D0380FD04
:103B9E005CC080916D0382FD5AC080916C0383FDE1
:103BAE0009C0092E99E0AA0CBB1CCC1CDD1C9A95F1
:103BBE00D1F7902D91E0E916F104A1F4B601A5011B
:103BCE0088E10E940720811135C04EEF882DB30188
:103BDE000E94C22531E020E0892B09F030E0E32E6F
:103BEE00F22E28C0867031F0A70160E070E087E900
:103BFE000E940720B601A50189E10E9407208111CC
:103C0E0019C04CEF882DB3010E94C225892B39F0C3
:103C1E0082E0780E811C91E0E91AF10891F74DEFE0
:103C2E0060E070E080E00E94C225892B19F4EE243A
:103C3E00E394F12C0E94292D81E0EF2849F480E0D5
:103C4E0007C084E005C084E003C083E001C082E0C9
:103C5E001F910F91FF90EF90DF90CF90BF90AF909C
:083C6E008F907F906F90089584
:103C7600EF92FF920F931F93CF93DF93EC010E9475
:103C8600AC21982F811165C08D81813009F057C014
:103C96001D828881833009F052C080E092E0FE01E7
:103CA600F096DF019C011D9221503040E1F782E53C
:103CB60088AB89AB81E68AAB91E49BAB22E7DE0158
:103CC600AC5EBD4F2C9311962C9311969C93119636
:103CD6008C93388929899A898B8911963C931196F8
:103CE6002C9311969C9311968C933C852D859E85DD
:103CF6008F8511963C9311962C9311969C93119651
:103D06008C931D961C9211961C9285E511968C93A8
:103D16008AEA11968C9308A119A12AA13BA10F5FEB
:103D26001F4F2F4F3F4F0C8F1D8F2E8F3F8FAF0191
:103D360060E8EE24E394F12C89810E94B71D40E0EF
:103D460050E060E089810E94BD1B91E0811101C0B5
:103D560090E0892FDF91CF911F910F91FF90EF9007
:023D66000895BE
:103D6800A2E0B0E0EAEBFEE10C94392B4C016B01C8
:103D7800FB0122813381A480B580808191819A835F
:103D8800898366807780FA01208031804280538061
:103D9800B201A10157FE07C044275527BA014219AD
:103DA80053096409750937FD03C08D7F9A83898398
:103DB800950157FC05C0898182FD02C083FF02C0BE
:103DC80021503109CE0101967C010AE010E0C601BC
:103DD8000E94472157FC03C0298122FF0AC001978E
:103DE800F301E80FF91F57FC02C02BE209C02DE2CE
:103DF80007C023FF06C00197F301E80FF91F20E26F
:103E08002083E980FA80F601208531852150310927
:103E1800281B390B860D971DAC0160E88501C4018C
:103E28000E945A269C01F4018081918190FF06C06E
:103E3800F60182819381821793070CF4C9012296B7
:063E4800E2E10C94702B76
:103E4E002F923F924F925F926F927F928F92CF926C
:103E5E00DF92EF92FF920F931F93CF93DF936C013C
:103E6E002A013B010E94AC2181114AC0B301A2017B
:103E7E00C6010E94A9291B012C01D6015C966D93E7
:103E8E007D938D939C935F97F601F09680E092E080
:103E9E00DF019C011D9221503040E1F7D6011A96A8
:103EAE008D919C911B97892B59F4C0E0D0E01FC0D7
:103EBE002196F60182859385C817D90730F017C071
:103ECE00C0E0D0E03F0120E8822EEE24E394F12CF6
:103EDE00920181010C0F1D1F211D311D682DA301A3
:103EEE00D60111968C910E94B71D882309F381E0AB
:103EFE00F601228533852C173D0719F480E001C0A9
:103F0E0081E0DF91CF911F910F91FF90EF90DF90A5
:103F1E00CF908F907F906F905F904F903F902F90AB
:023F2E000895F4
:103F30006F927F928F92DF92EF92FF920F931F9377
:103F4000CF93DF9300D0CDB7DEB77C01062FD42E00
:103F5000FC011082662309F448C010E0CE010196EE
:103F60003C01F0E88F2E0E94D2238823A1F18332F6
:103F700029F40E94D2238111FCCF38C08A3299F4EF
:103F80000E94D2238111FCCFF701108280EC0E94A5
:103F90008B2B6AED70E080E00E94552B80EC0E9434
:103FA0008B2B10E01EC0F701E10FF11D8083118201
:103FB000DD2031F06BEE70E080E00E94552B06C0F2
:103FC00089831A82882DB3010E94552B1F5F0E949E
:103FD000D2238111FCCF6AE070E080E090E00E9483
:103FE000A22A101708F4BFCF01C010E0F701E10FBB
:103FF000F11D10820F900F90DF91CF911F910F91C3
:0E400000FF90EF90DF908F907F906F9008956B
:10400E00FF920F931F93CF93DF93C82FD42F152FAB
:10401E00062FF72E882354F440E050E0BA0187E3D0
:10402E000E940720823008F052C0CF77CC3059F171
:10403E000E94292D0E943D2D0E94F628892B21F4E5
:10404E000E94292D8FEF43C08C2F80640E94382D43
:10405E008F2D0E94382D802F0E94382D812F0E9487
:10406E00382D8D2F0E94382DCC2369F129C08FEF6A
:10407E000E94382DCAE08FEF0E94382D88233CF520
:10408E00C150C9F724C08CE40E94382D8F2D0E9498
:10409E00382D802F0E94382D812F0E94382D8D2F84
:1040AE000E94382D81E00E94382DCC3001F3E2CFF2
:1040BE0087E80E94382DDECF81E00E94382DDACFBE
:1040CE00C830B1F3F9CF85E90E94382DD3CFDF91F7
:0A40DE00CF911F910F91FF900895FC
:1040E800CF93DF93DC01F90168387105F1F05CF4D6
:1040F8006138710561F164387105C9F1603871057D
:1041080009F056C034C0603C710561F1603F71052B
:1041180009F443C0603A710509F04AC0C081D181F1
:10412800CE010296918380832AC0C081D181CE01BD
:10413800029691838083452B39F04881042E000C28
:10414800550B660B770B21C0488150E02EC0C0810B
:10415800D181CE01049691838083488159816A81F7
:104168007B8113C0C081D181CE0102961AC0C08163
:10417800D181CE01029691838083452BA1F048819D
:104188005981052E000C660B770B4D935D936D934B
:104198007C93139781E090E00DC0C081D181CE015E
:1041A8000396918380834881598160E070E0EDCF68
:0A41B80080E090E0DF91CF910895C0
:1041C200BF92CF92DF92EF92FF920F931F93CF9302
:1041D200DF93CDB7DEB7AA970FB6F894DEBF0FBE56
:1041E200CDBF062FE72ED82EC22EF32EB42E0E945C
:1041F200052D22E34DEE50E060E080E393E00E9463
:104202009509182F81112DC0BF92FF92CF92DF9294
:10421200EF920F9388EF90E0A0E0AF939F938F937C
:104222008E010F5F1F4F1F930F930E942E2C680168
:1042320080E8E82E8E2DB6010E94052C085D1F4FE6
:104242009C016E2DA60180E393E00E948F07182F38
:1042520080E393E00E94C22A0FB6F894DEBF0FBE3D
:10426200CDBF0E94352D81E0111180E0AA960FB6D4
:10427200F894DEBF0FBECDBFDF91CF911F910F919A
:0C428200FF90EF90DF90CF90BF90089568
:10428E00A0E0B0E0EDE4F1E20C943B2BDC01280160
:10429E001696AD90BC901797F7018081918112967A
:1042AE00ED91FC9113971896CD91DC91199721976A
:1042BE00F7FF02C0E1E0F0E0CA0DDB1D18826901D4
:1042CE00A1E0B0E08F01021B130B4C01F2E08F2234
:1042DE009924052C000C66087708CE018A199B09D3
:1042EE00CA15DB0519F1411551056105710589F0F6
:1042FE00CB01BA01A30192010E945F2ACA01A62F27
:10430E00B72F605D6A9341E0C41AD108A901BC01C0
:10431E00E4CF98012C0D3D1D121613064CF31C1400
:10432E001D0434F48114910419F702C080E090E06A
:10433E00AB2B31F4F701208131812F7E3183208325
:0A434E00CDB7DEB7E0E10C94722B4E
:104358006F927F928F92CF92DF92EF92FF920F939C
:104368001F93CF93DF93FC0124812223F1F1EC0109
:104378003C01F0E36F0E711C80E8882E0C8D1D8DBA
:104388002E8D3F8DEE24E394F12C682DA3018981B5
:104398000E94B71D81112BC01C820C8D1D8D2E8D86
:1043A8003F8D888D998DAA8DBB8D4CA15DA16EA185
:1043B8007FA168017901C41AD50AE60AF70AC81666
:1043C800D906EA06FB06A8F44B814230A1F4080F8F
:1043D800191F2A1F3B1FEE24E394F12C682DA3011B
:1043E80089810E94B71D80E007C080E005C081E098
:1043F80003C080E001C080E0DF91CF911F910F9151
:10440800FF90EF90DF90CF908F907F906F900895FE
:10441800EF92FF920F931F93CF938C01DC01ED90E5
:10442800FC9040E050E0BA010E940F19C82F81119A
:104438001DC0F80146895789608D718DC7010E949A
:104448000B28C82F811112C0D8015A96ED91FC9102
:104458005B978081853E71F0882361F061E070E0B0
:10446800C8010E943516C82F882319F3C43039F1C2
:10447800C11126C0F80146895789608D718DC70121
:104488000E940B28C82F81111BC0D8015A96ED91A4
:10449800FC915B9780E2DF011D928A95E9F7A801FC
:1044A800445E5F4F60E82BE030E0F801828D938D29
:1044B8000E94BD2B81E0D70114968C9301C0C7E000
:0E44C8008C2FCF911F910F91FF90EF900895D0
:1044D6000F931F93CF93DF93EB0181114BC001150F
:1044E600110509F449C080916D0380FD47C0809194
:1044F6006C0383FD09C0012E19E0220F331F441FF0
:10450600551F1A95D1F7102D01301105A1F4BA01E6
:10451600A90181E10E940720811125C060E072E0B7
:10452600CE010E94262431E020E0892B09F030E0FC
:10453600032F122F18C0BA01A90182E10E94072099
:10454600811111C060E072E0CE010E942624892B01
:1045560021F0DE5F01501109A9F740E050E0BA01F1
:104566008CE00E9407200E94292D81E0012B39F45E
:1045760080E005C084E003C084E001C083E0DF91F1
:08458600CF911F910F910895E0
:10458E008F929F92AF92BF92CF92DF92EF92FF9255
:10459E000F931F93CF93DF9300D000D000D0CDB7F1
:1045AE00DEB76B0121E0C21AD1081C141D0464F59C
:1045BE005A014C018C01E12CF12C9E012B5F3F4FD7
:1045CE0041E050E0BE016F5F7F4FC5010E94881130
:1045DE008D819E81019771F499810F5F1F4FF801B4
:1045EE00319790838FEFE81AF80A9A3019F0EC148D
:1045FE00FD041CF3F8011082EF2819F0882D992D77
:10460E0007C080E090E004C0FC01108280E090E0E2
:10461E0026960FB6F894DEBF0FBECDBFDF91CF91B9
:10462E001F910F91FF90EF90DF90CF90BF90AF90C2
:06463E009F908F9008958B
:10464400A2E0B0E0E8E2F3E20C943D2B5C016B01E4
:10465400FB012281338184809580808191819A83BA
:1046640089836680778037FD03C08D7F9A83898331
:10467400FA014081518162817381CE0101967C01EE
:1046840008E010E09401C6010E944721298124FF1B
:1046940006C00197F301E80FF91F20E32083298165
:1046A40023FF06C00197F301E80FF91F20E22083DE
:1046B400E980FA80F6012085318521503109281BD3
:1046C400390B860D971DAC0160E88401C5010E9479
:1046D4005A269C01F5018081918190FF06C0F60164
:1046E40082819381821793070CF4C9012296EEE02C
:0446F4000C94742B83
:1046F800EF92FF920F931F93CF93DF9300D0CDB724
:10470800DEB78C01BE016F5F7F4F0E945229811175
:104718003CC0F801968596FF38C0448D558D668D4E
:10472800778D89819A810E940B2881112EC0F8010A
:10473800E0A0F1A0F701838580628387F8012681D4
:10474800378140855185B701808191810E94A92CCC
:10475800F8013285238594858585F701348F258F67
:10476800968F878F168A178A81E2808F8AE5818FD4
:10477800128A138A89819A8121E0FC0124830E948C
:104788003B1EF80196859F7B96870F900F90DF91CF
:0C479800CF911F910F91FF90EF900895BA
:1047A400CF93DF93C0E0D0E08BB1806F8BB98BB136
:1047B40087608BB9289A209711F45F980EC0C13096
:1047C400D10511F45E9809C0C230D10511F45D9889
:1047D40004C0C330D10509F45C9865E070E080E062
:1047E40090E00E94A22A489908C0CC0FDD1FCC0F8C
:1047F400DD1FCC5ADC4F888124C0499908C0CC0FF6
:10480400DD1FCC0FDD1FCC5ADC4F89811AC04A99B9
:1048140008C0CC0FDD1FCC0FDD1FCC5ADC4F8A81C2
:1048240010C0189908C0CC0FDD1FCC0FDD1FCC5A67
:10483400DC4F8B8106C02196C430D10509F0B4CF7A
:0848440080E0DF91CF9108959F
:10484C00CF92DF92EF92FF920F931F93CF93DF9350
:10485C00082F192FEB01C0906403D0906503E090F2
:10486C006603F09067038FEF0E94382D8F3FA1F401
:10487C008091640390916503A0916603B0916703E6
:10488C008C199D09AE09BF09883C9105A105B1059C
:10489C0050F380E090E01FC08E3FD9F4E02EF12E53
:1048AC008FEF0E941C2BF70180838FEF0E941C2B33
:1048BC00F70181832297F2E0EF0EF11C209781F72C
:1048CC008FEF0E94382D8FEF0E94382D81E090E001
:1048DC0002C080E090E0DF91CF911F910F91FF908B
:0848EC00EF90DF90CF900895DA
:1048F4001F93CF93DF93CDB7DEB728970FB6F89405
:10490400DEBF0FBECDBF9D838C834E835F836887DC
:10491400122F49835A836B83CE0101960E94CE24C1
:1049240099236CF1FC01EE0FFF1FE659FC4FA081A7
:10493400B181109741F0FC01EE0FFF1FE659FC4FC7
:10494400118210821C92EC81FD81309769F0818381
:10495400EC81FD811082880F991FFC01E659FC4F00
:104964008C819D8191838083112359F040E0BE01A5
:104974006C5F7F4FCE0106960E94820103C08BE0DC
:1049840001C080E028960FB6F894DEBF0FBECDBFFD
:08499400DF91CF911F910895FE
:10499C006F927F928F92CF92DF92EF92DC016D90AB
:1049AC007D908C90129761147104810479F1482DDB
:1049BC0093012F5F3F4F4F4F6901E42E81E0C81ADE
:1049CC00D108E108F6019491E7FC9081913218F03E
:1049DC009A3379F702C09A33E1F4F301849187FC9E
:1049EC00808190ED980F9A30B8F492E0690E711CAA
:1049FC00811C26153705480591F490E0C0971816D0
:104A0C00190684F02D933D934C930EC08FEF9FEFBE
:104A1C000BC080E090E008C08FEF9FEF05C08FEFD8
:104A2C009FEF02C08FEF9FEFEF90DF90CF908F90B2
:064A3C007F906F900895C9
:104A42006F927F928F92EF92FF920F931F93CF9369
:104A5200DF93CDB7DEB761970FB6F894DEBF0FBE16
:104A6200CDBFFE01319651E1DF011D925A95E9F762
:104A7200A2E0B1E0BA83A9839C838B8377FF09C04C
:104A82008FE490E090935303809352038FEF9FEF54
:104A920019C03901842E7C01615071097F836E83B4
:104AA2009801682DA301CF010E94D62B4885598514
:104AB2002E813F814217530708F49A01F701E20F52
:104AC200F31F108261960FB6F894DEBF0FBECDBF02
:104AD200DF91CF911F910F91FF90EF908F907F9078
:044AE2006F90089534
:104AE600CF92DF92EF92DC0190E0292F30E0220F87
:104AF600331F6901032E000CEE086E2DA6014052ED
:104B06005D4F6F4F6A01E62EFA018491E7FC8081C2
:104B160081110DC02F5F3F4F032E000C440B205216
:104B26003D4F4F4FF901849147FD808124C0CD90C0
:104B3600DD90EC901297F6014491E7FC40818413D6
:104B460015C02F5F3F4F032E000C440B20523D4FE4
:104B56004F4FF901949147FD90815FEFC51AD50A31
:104B6600E50ACD92DD92EC92129701C09F5F9B30D1
:0E4B760008F4BBCF892FEF90DF90CF90089509
:104B84006F927F928F92CF92DF92EF92CF936B01CD
:104B9400E82EC42F0E94F6280097B1F18C2F0E94B2
:104BA400382DCD3F79F136018E2C82E0780E811CB0
:104BB400F6018491E7FC80810E94382D82E0C80EC2
:104BC400D11CE11CAE2DC6010197A109FC01849101
:104BD400A7FD80810E94382D6C147D048E0441F75A
:104BE4008FEF0E94382D8FEF0E94382D8FEF0E9497
:104BF400382D8F7131E020E0853009F030E0832FCB
:104C0400922F02C081E090E0CF91EF90DF90CF909F
:084C14008F907F906F900895CE
:104C1C000F931F93CF93DF93DB01109719F48FEF52
:104C2C009FEF3DC02D913C91119730FF25C01796F9
:104C3C004D915C91189715962D913C9116974217B2
:104C4C00530778F41296ED91FC911397808312968A
:104C5C002D913C9113972F5F3F4F13963C932E93BE
:104C6C00129717962D913C9118972F5F3F4F1896DE
:104C7C003C932E93179713C01D96ED91FC911E97A4
:104C8C00309769F2EB01092F182F0995892B39F60A
:104C9C008F819885019698878F83812F902FDF9134
:084CAC00CF911F910F910895B3
:104CB4006F927F928F92AF92BF92CF92DF92EF92D8
:104CC400FF920F931F93CF93DF935C013A01862EDB
:104CD400E901670181E0C822DD24E0FC03C020175C
:104CE400310758F09E01682DA301C5010E94C22816
:104CF400C017D10710F0CE0118C07801EC1AFD0AD4
:104D0400E114F10449F0B50180E290E00E940E261E
:104D140081E0E81AF108F4CFCD2831F49E01682D22
:104D2400A301C5010E94C228C801DF91CF911F9140
:104D34000F91FF90EF90DF90CF90BF90AF908F9046
:064D44007F906F900895BE
:104D4A008F929F92AF92BF92CF92DF92EF929B0186
:104D5A00482FA82FCB010396A11DFC016491A7FD42
:104D6A006081862F90E0A0E0B0E08824982EA92EDA
:104D7A00BA2E6901E42E82E0C80ED11CE11CF601AC
:104D8A005491E7FC5081D501C401852B8824982EC3
:104D9A00A92EBA2E6901E42E8FEFC81AD80AE80A9A
:104DAA00F6015491E7FC5081D501C401852BBA2F35
:104DBA00A92F982F8827F901249147FD2081BC014A
:104DCA00CD01622BEF90DF90CF90BF90AF909F9074
:044DDA008F90089519
:104DDE00A3E8B0E0E5EFF6E20C943F2B5C0149014D
:104DEE00CF57DF4F488359836A83C158D040C12CB7
:104DFE00D12CCF57DF4F2881C158D040CE57DF4F2F
:104E0E009881C258D040CD57DF4F8881C358D040CB
:104E1E00E22FF92F949187FD90819923E9F0740187
:104E2E00860120E830E0AE014F5F5F4FBE016F5745
:104E3E007F4FC5010E9423058C0D9D1D8C159D0570
:104E4E004CF48FE490E090935303809352038FEFD2
:104E5E009FEF03C06C01CDCFC601CD57DF4FECE005
:044E6E000C94762BFF
:104E7200CF92DF92EF920F931F93DC019A01462F9C
:104E82006901E42E5BE1C50ED11CE11CF6016491BF
:104E9200E7FC608170E0762F66276901E42E8AE1E3
:104EA200C80ED11CE11CF6018491E7FC8081682BBD
:104EB20080E090E05C915330F1F46901E42E55E119
:104EC200C50ED11CE11CF6010491E7FC008110E043
:104ED200102F00272C5E3F4F4F4FF901249147FDC1
:104EE2002081022B20E030E0980111270027602B5F
:104EF200712B822B932B1F910F91EF90DF90CF900C
:024F0200089510
:104F0400A2E0B0E0E8E8F7E20C943D2B5C016B0111
:104F1400FB012281338184809580808191819A83F1
:104F240089836680778037FD03C08D7F9A83898368
:104F3400FA014081518162817381CE0101967C0125
:104F44000AE010E09401C6010E944721E980FA803A
:104F5400F6012085318521503109281B390B860D36
:104F6400971DAC0160E88401C5010E945A269C018A
:104F7400F5018081918190FF06C0F60182819381C1
:104F8400821793070CF4C9012296EEE00C94742B5B
:104F9400229A3D9A2A9A459862E370E080E090E074
:104FA4000E94A22A459A62E370E080E090E00E94A9
:104FB400A22A0E94FD2C6FE081E00E949C2C62E3F7
:104FC40070E080E090E00E94A22A6DE88AE20E94EC
:104FD4009C2C6EE38BE20E949C2C6EE18DE20E947D
:104FE4009C2C60E08CE20E949C2C60E485E10E9491
:104FF4009C2C6DE381E10E949C2C84E10E94C22CD4
:10500400982F937029F4682F636084E10E949C2C8C
:025014000895FD
:105016008F929F92AF92BF92FF920F931F93CF935F
:10502600DF93EC014A015B018C8D9D8DAE8DBF8DAA
:1050360084179507A607B707E9F0CE010E94AC21B1
:10504600F82E811118C001E010E0A5019401BE01FF
:10505600605D7F4F89810E946B22882331F0FF2497
:10506600F39488248A94982C54018C8E9D8EAE8E4F
:10507600BF8E01C0F12C8F2DDF91CF911F910F9123
:0C508600FF90BF90AF909F908F90089516
:105092006F927F928F92CF92DF92EF92FF920F9355
:1050A2001F93CF93DF936C01FB013901842EC8015A
:1050B200C281D38104811581E080F180232B242BCE
:1050C20031F426EF622E22E0722E20E0822E00972B
:1050D20021F4882DB3010E94052CD7FD04C0C81706
:1050E200D90708F4CE019C01682DA301C6010E94D4
:1050F2005A26DF91CF911F910F91FF90EF90DF9091
:0A510200CF908F907F906F9008957A
:10510C00DC012D913D914C911297F901849147FD51
:10511C0080818A3221F080E090E07AE011C02F5F2C
:10512C003F4F4F4F2D933D934C93DB01ED91FC91F1
:10513C001197CF0102968D939C9380819181089554
:10514C002D913D914C911297F901549147FD50814D
:10515C0050535A3080F4789FF001799FF00D112450
:10516C00CF01850F911D2F5F3F4F4F4F2D933D93D7
:08517C004C931297E5CF089552
:105184006F927F928F92CF92DF92EF920F931F9341
:10519400CF93DF938C016A01E62EE9013A01862E52
:1051A400620E731E811C37FD8A94C614D704E8046A
:1051B40079F0F6018491E7FC8081B801082E000C97
:1051C400990B0E940E268FEFC81AD80AE80AEDCF71
:1051D400CE01DF91CF911F910F91EF90DF90CF908F
:0851E4008F907F906F900895F9
:1051EC00CF92DF92EF92FF92C0906403D090650350
:1051FC00E0906603F09067038FEF0E94382D8F3F8D
:10520C0089F040916403509165036091660370913D
:10521C0067034C195D096E097F09443F51406105D4
:10522C00710550F321E030E08F3F11F020E030E0C9
:0C523C00C901FF90EF90DF90CF90089523
:105248006F927F928F92CF92DF92EF92CF93DF93FC
:105258006B01E82E3901842EC0E0D0E0F6014491BC
:10526800E7FC4081442381F0042E000C550B882D67
:10527800B3010E94412C672B682B31F48FEFC81AB9
:10528800D80AE80A2196EACFCE01DF91CF91EF90B4
:0C529800DF90CF908F907F906F90089572
:1052A4000F931F93CF93DF93EC018B01892BE1F0D4
:1052B400E881F9813097C1F080818823A9F02A819F
:1052C4003B81868197812817390771F481810E9477
:1052D400152D80FD09C004C0F8013183208308C066
:1052E4002881398180E0F8CF89E020E030E0F4CFF4
:0A52F400DF91CF911F910F910895F3
:1052FE00CF92DF92EF920F931F936B01E82E011561
:10530E001105A1F0F6018491E7FC8081F901549119
:10531E0047FD508185130DC0015011098FEFC81A3A
:10532E00D80AE80A2F5F3F4F4F4FE9CF80E090E059
:10533E0003C090E0851B91091F910F91EF90DF90B4
:04534E00CF9008955F
:105352000F931F93FC019A01AB01225031094109BD
:10536200510984899589A689B7890297A109B1094A
:10537200281739074A075B0768F4A285B3850E949C
:10538200CD2C04A515A526A537A5600F711F821F78
:10539200931F03C060E070E0CB011F910F9108954D
:1053A200EF92FF920F931F93CF93DF9300D0CDB76D
:1053B200DEB77C0183E9F701808380E2818360E0CC
:1053C2008DE00E949C2C8E010F5F1F4F970142E0DF
:1053D200B7018CE00E94E21A0F900F90DF91CF91FB
:0A53E2001F910F91FF90EF900895C6
:1053EC0087B18F6087B9269A279A64E170E080E0D4
:1053FC0090E00E94A22A83E30E948B2B82E30E94FE
:10540C008B2B88E20E948B2B8CE00E948B2B86E0EE
:10541C000E948B2B81E00E948B2B62E070E080E07D
:08542C0090E00E94A22A0895FD
:105434001F921FB61F9211248F939F93AF93BF9314
:105444008091640390916503A0916603B091670312
:105454000196A11DB11D8093640390936503A093ED
:105464006603B0936703BF91AF919F918F911F9093
:065474001FBE1F901895F9
:10547A00EF92FF920F931F93CF93DF9300D0CDB794
:10548A00DEB77B01FB01808367E08DE00E949C2CE4
:10549A008E010F5F1F4F970141E0B7018CE00E9418
:1054AA00E21A0F900F90DF91CF911F910F91FF9009
:0454BA00EF900895D2
:1054BE00A1E21A2EAA1BBB1BFD010DC0AA1FBB1F0A
:1054CE00EE1FFF1FA217B307E407F50720F0A21B7C
:1054DE00B30BE40BF50B661F771F881F991F1A94E9
:1054EE0069F760957095809590959B01AC01BD0113
:0454FE00CF0108953D
:10550200CF92DF92EF926B01E82EF6018491E7FCD5
:105512008081F901549147FD508185130BC0882386
:1055220041F08FEFC81AD80AE80A2F5F3F4F4F4F5A
:10553200ECCF582F90E0851B9109EF90DF90CF9030
:025542000895CA
:105544000F931F938B019C01409164035091650359
:105554006091660370916703809164039091650381
:10556400A0916603B0916703841B950BA60BB70B40
:1055740080179107A207B30778F31F910F9108953D
:105584000F931F93CF93DF9300D0CDB7DEB78C0179
:105594000E947C2381110BC0BE016F5F7F4FC80145
:1055A4000E945229811103C0F801118210820F90C8
:0C55B4000F90DF91CF911F910F9108958F
:1055C00080916E038230C9F088EE93E00E94802CB7
:1055D00060E971E080E090E00E94A22A8CED95E005
:1055E0000E94802C6CE370E080E090E00E94A22A90
:0C55F0000E941C2D82E080936E03089541
:1055FC0080916E038130C9F080ED97E00E94802C81
:10560C0060E971E080E090E00E94A22A8CED95E0C8
:10561C000E94802C6CE370E080E090E00E94A22A53
:0C562C000E941C2D81E080936E03089505
:10563800282F98E080E0222314F42B9A01C02B989D
:10564800220F32E03A95F1F700C02D9A32E03A95F0
:10565800F1F700C0880F349981602D9832E03A95AF
:0A566800F1F700C0915039F70895E2
:105672002F923F924F925F926F927F928F929F9260
:10568200AF92BF92CF92DF92EF92FF920F931F934E
:10569200CF93DF93CDB7DEB7CA1BDB0B0FB6F894FF
:0856A200DEBF0FBECDBF09946D
:1056AA00CF92DF92EF926B01E82EFB018491E7FC27
:1056BA008081882361F09FEFC91AD90AE90A0E94FA
:1056CA00A42BF6018491E7FC80818111F4CFEF903D
:0656DA00DF90CF9008955F
:1056E0002A88398848885F846E847D848C849B8472
:1056F000AA84B984C884DF80EE80FD800C811B8180
:10570000AA81B981CE0FD11D0FB6F894DEBF0FBEAE
:06571000CDBFED0108957C
:10571600CF93C82F2E9888B1807F88B988B19C2FE7
:1057260092959F70892B88B90E94542C88B1807FEE
:1057360088B988B1CF70C82BC8B90E94542CCF91B4
:025746000895C4
:10574800CF93C82F2E9A88B1807F88B988B19C2FB3
:1057580092959F70892B88B90E94542C88B1807FBC
:1057680088B988B1CF70C82BC8B90E94542CCF9182
:02577800089592
:10577A00CF92DF92EF926A01E62EDC01280F391FE1
:10578A00A217B30751F0F6014491E7FC40814D930B
:10579A004FEFC41AD40AE40AF3CFEF90DF90CF9008
:0257AA00089560
:1057AC00A2E0B0E0ECEDFBE20C94472B8C013A83C9
:1057BC0029839E012F5F3F4F0E94EF26F801208125
:1057CC0024FF02C08FEF9FEF2296E4E00C947E2B17
:1057DC00219A299880E29EE490938700809386001A
:1057EC008CED95E0909389008093880082E0809303
:0E57FC0080008AE18093810010926E03089570
:10580A00CF92DF92EF926B01E82EA82FCB01FC0119
:10581A002491A7FD2081222319F00196A11DF7CF1B
:0C582A008C199D09EF90DF90CF9008953D
:10583600A0E0B0E0E1E2FCE20C94492B9E01265F79
:105846003F4F4F81588569858D819E810E94B62C78
:06585600E2E00C94802B3F
:10585C00A0E0B0E0E4E3FCE20C94492B9E01265F4F
:10586C003F4F4F81588569858D819E810E94B62C52
:06587C00E2E00C94802B19
:10588200A82FCB01FC012491A7FD2081241741F010
:105892000196A11D2111F6CF60E070E080E008952D
:0658A200BC018A2F0895ED
:1058A8002F9A61E070E080E090E00E94A22A2F9891
:0E58B80061E070E080E090E00E94A22A089576
:1058C600A29FB001B39FC001A39F700D811D11243B
:0E58D600911DB29F700D811D1124911D08952A
:1058E40084B5826084BD85B5836085BDEEE6F0E055
:0C58F4008081826080838CE787BD08956E
:105900009093890080938800109285001092840003
:0C591000E0E8F0E080818068808308956A
:10591C009A01462FDC01F901549147FD50815D93AA
:0C592C002F5F3F4F4F4F5111F6CF0895F1
:10593800CF93C62F2A98880F8E770E94232D8C2FFD
:0A5948000E94232D2A9ACF910895A2
:10595200FB01228F338FDC018C91833029F4CA0141
:0A596200AA27BB27848B958B0895BC
:10596C000F931F9389019A01462F6FEF7FE70E94D7
:08597C0021251F910F910895F0
:105984002A98880F8E7780680E94232D80E00E94D9
:06599400232D2A9A08955C
:10599A000E94632CA59F900DB49F900DA49F800D2B
:0659AA00911D1124089577
:1059B000EC010E94442D0E94432DCE010E94452DF2
:0659C000CE010E94412D02
:1059C600FC01480F591FE417F50711F06193FBCF4F
:0259D600089532
:1059D8009C01215631092A31310510F48F75992718
:0259E800089520
:1059EA008AB1806F8AB98AB1887F8AB92098089566
:1059FA00239A259A229A2A9A249881E58CBD089599
